{
  "_format": "hh-sol-artifact-1",
  "contractName": "ConfigurableERC20Upgradable",
  "sourceName": "contracts/ConfigurableERC20Upgradable.sol",
  "abi": [
    {
      "anonymous": false,
      "inputs": [
        {
          "indexed": true,
          "internalType": "address",
          "name": "owner",
          "type": "address"
        },
        {
          "indexed": true,
          "internalType": "address",
          "name": "spender",
          "type": "address"
        },
        {
          "indexed": false,
          "internalType": "uint256",
          "name": "value",
          "type": "uint256"
        }
      ],
      "name": "Approval",
      "type": "event"
    },
    {
      "anonymous": false,
      "inputs": [
        {
          "indexed": true,
          "internalType": "address",
          "name": "previousOwner",
          "type": "address"
        },
        {
          "indexed": true,
          "internalType": "address",
          "name": "newOwner",
          "type": "address"
        }
      ],
      "name": "OwnershipTransferred",
      "type": "event"
    },
    {
      "anonymous": false,
      "inputs": [
        {
          "indexed": true,
          "internalType": "address",
          "name": "from",
          "type": "address"
        },
        {
          "indexed": true,
          "internalType": "address",
          "name": "to",
          "type": "address"
        },
        {
          "indexed": false,
          "internalType": "uint256",
          "name": "value",
          "type": "uint256"
        }
      ],
      "name": "Transfer",
      "type": "event"
    },
    {
      "inputs": [
        {
          "internalType": "address",
          "name": "who",
          "type": "address"
        },
        {
          "internalType": "bytes4",
          "name": "functionSig",
          "type": "bytes4"
        },
        {
          "internalType": "uint256",
          "name": "id",
          "type": "uint256"
        }
      ],
      "name": "addBypassRule",
      "outputs": [],
      "stateMutability": "nonpayable",
      "type": "function"
    },
    {
      "inputs": [
        {
          "internalType": "address",
          "name": "_depositer",
          "type": "address"
        }
      ],
      "name": "addDepositer",
      "outputs": [],
      "stateMutability": "nonpayable",
      "type": "function"
    },
    {
      "inputs": [
        {
          "internalType": "address",
          "name": "_minter",
          "type": "address"
        }
      ],
      "name": "addMinter",
      "outputs": [],
      "stateMutability": "nonpayable",
      "type": "function"
    },
    {
      "inputs": [
        {
          "internalType": "address",
          "name": "_viewer",
          "type": "address"
        }
      ],
      "name": "addViewer",
      "outputs": [],
      "stateMutability": "nonpayable",
      "type": "function"
    },
    {
      "inputs": [],
      "name": "allowPrivateTransactions",
      "outputs": [
        {
          "internalType": "bool",
          "name": "",
          "type": "bool"
        }
      ],
      "stateMutability": "view",
      "type": "function"
    },
    {
      "inputs": [
        {
          "internalType": "address",
          "name": "_owner",
          "type": "address"
        },
        {
          "internalType": "address",
          "name": "spender",
          "type": "address"
        }
      ],
      "name": "allowance",
      "outputs": [
        {
          "internalType": "uint256",
          "name": "",
          "type": "uint256"
        }
      ],
      "stateMutability": "view",
      "type": "function"
    },
    {
      "inputs": [
        {
          "internalType": "address",
          "name": "spender",
          "type": "address"
        },
        {
          "internalType": "uint256",
          "name": "amount",
          "type": "uint256"
        }
      ],
      "name": "approve",
      "outputs": [
        {
          "internalType": "bool",
          "name": "",
          "type": "bool"
        }
      ],
      "stateMutability": "nonpayable",
      "type": "function"
    },
    {
      "inputs": [
        {
          "internalType": "address",
          "name": "account",
          "type": "address"
        }
      ],
      "name": "balanceOf",
      "outputs": [
        {
          "internalType": "uint256",
          "name": "",
          "type": "uint256"
        }
      ],
      "stateMutability": "view",
      "type": "function"
    },
    {
      "inputs": [],
      "name": "blockNumberLocked",
      "outputs": [
        {
          "internalType": "bool",
          "name": "",
          "type": "bool"
        }
      ],
      "stateMutability": "view",
      "type": "function"
    },
    {
      "inputs": [],
      "name": "blocksTillUnlock",
      "outputs": [
        {
          "internalType": "uint256",
          "name": "",
          "type": "uint256"
        }
      ],
      "stateMutability": "view",
      "type": "function"
    },
    {
      "inputs": [
        {
          "internalType": "uint256",
          "name": "amount",
          "type": "uint256"
        }
      ],
      "name": "burn",
      "outputs": [],
      "stateMutability": "nonpayable",
      "type": "function"
    },
    {
      "inputs": [],
      "name": "burnable",
      "outputs": [
        {
          "internalType": "bool",
          "name": "",
          "type": "bool"
        }
      ],
      "stateMutability": "view",
      "type": "function"
    },
    {
      "inputs": [
        {
          "internalType": "string",
          "name": "_name",
          "type": "string"
        },
        {
          "internalType": "string",
          "name": "_symbol",
          "type": "string"
        },
        {
          "internalType": "uint8",
          "name": "_decimals",
          "type": "uint8"
        }
      ],
      "name": "changeContractDetails",
      "outputs": [],
      "stateMutability": "nonpayable",
      "type": "function"
    },
    {
      "inputs": [],
      "name": "decimals",
      "outputs": [
        {
          "internalType": "uint8",
          "name": "",
          "type": "uint8"
        }
      ],
      "stateMutability": "view",
      "type": "function"
    },
    {
      "inputs": [
        {
          "internalType": "address",
          "name": "spender",
          "type": "address"
        },
        {
          "internalType": "uint256",
          "name": "subtractedValue",
          "type": "uint256"
        }
      ],
      "name": "decreaseAllowance",
      "outputs": [
        {
          "internalType": "bool",
          "name": "",
          "type": "bool"
        }
      ],
      "stateMutability": "nonpayable",
      "type": "function"
    },
    {
      "inputs": [
        {
          "internalType": "address",
          "name": "user",
          "type": "address"
        },
        {
          "internalType": "bytes",
          "name": "depositData",
          "type": "bytes"
        }
      ],
      "name": "deposit",
      "outputs": [],
      "stateMutability": "nonpayable",
      "type": "function"
    },
    {
      "inputs": [
        {
          "internalType": "address",
          "name": "",
          "type": "address"
        }
      ],
      "name": "depositers",
      "outputs": [
        {
          "internalType": "bool",
          "name": "",
          "type": "bool"
        }
      ],
      "stateMutability": "view",
      "type": "function"
    },
    {
      "inputs": [
        {
          "internalType": "uint256",
          "name": "_type",
          "type": "uint256"
        }
      ],
      "name": "getAllRegisteredContractsOfType",
      "outputs": [
        {
          "internalType": "address[]",
          "name": "",
          "type": "address[]"
        }
      ],
      "stateMutability": "view",
      "type": "function"
    },
    {
      "inputs": [
        {
          "internalType": "address",
          "name": "spender",
          "type": "address"
        },
        {
          "internalType": "uint256",
          "name": "addedValue",
          "type": "uint256"
        }
      ],
      "name": "increaseAllowance",
      "outputs": [
        {
          "internalType": "bool",
          "name": "",
          "type": "bool"
        }
      ],
      "stateMutability": "nonpayable",
      "type": "function"
    },
    {
      "inputs": [],
      "name": "initialize",
      "outputs": [],
      "stateMutability": "nonpayable",
      "type": "function"
    },
    {
      "inputs": [],
      "name": "isClaimable",
      "outputs": [
        {
          "internalType": "bool",
          "name": "",
          "type": "bool"
        }
      ],
      "stateMutability": "view",
      "type": "function"
    },
    {
      "inputs": [
        {
          "internalType": "address",
          "name": "_contract",
          "type": "address"
        },
        {
          "internalType": "uint256",
          "name": "_type",
          "type": "uint256"
        }
      ],
      "name": "isRegistered",
      "outputs": [
        {
          "internalType": "bool",
          "name": "",
          "type": "bool"
        }
      ],
      "stateMutability": "view",
      "type": "function"
    },
    {
      "inputs": [],
      "name": "lockForever",
      "outputs": [],
      "stateMutability": "nonpayable",
      "type": "function"
    },
    {
      "inputs": [],
      "name": "lockTemporarily",
      "outputs": [],
      "stateMutability": "nonpayable",
      "type": "function"
    },
    {
      "inputs": [
        {
          "internalType": "uint256",
          "name": "blockNumber",
          "type": "uint256"
        }
      ],
      "name": "lockTemporarilyTillBlock",
      "outputs": [],
      "stateMutability": "nonpayable",
      "type": "function"
    },
    {
      "inputs": [],
      "name": "locked",
      "outputs": [
        {
          "internalType": "bool",
          "name": "",
          "type": "bool"
        }
      ],
      "stateMutability": "view",
      "type": "function"
    },
    {
      "inputs": [],
      "name": "lockedPermenantly",
      "outputs": [
        {
          "internalType": "bool",
          "name": "",
          "type": "bool"
        }
      ],
      "stateMutability": "view",
      "type": "function"
    },
    {
      "inputs": [
        {
          "internalType": "address",
          "name": "account",
          "type": "address"
        },
        {
          "internalType": "uint256",
          "name": "amount",
          "type": "uint256"
        }
      ],
      "name": "mint",
      "outputs": [],
      "stateMutability": "nonpayable",
      "type": "function"
    },
    {
      "inputs": [
        {
          "internalType": "address",
          "name": "",
          "type": "address"
        }
      ],
      "name": "minters",
      "outputs": [
        {
          "internalType": "bool",
          "name": "",
          "type": "bool"
        }
      ],
      "stateMutability": "view",
      "type": "function"
    },
    {
      "inputs": [],
      "name": "name",
      "outputs": [
        {
          "internalType": "string",
          "name": "",
          "type": "string"
        }
      ],
      "stateMutability": "view",
      "type": "function"
    },
    {
      "inputs": [],
      "name": "owner",
      "outputs": [
        {
          "internalType": "address",
          "name": "",
          "type": "address"
        }
      ],
      "stateMutability": "view",
      "type": "function"
    },
    {
      "inputs": [
        {
          "internalType": "address",
          "name": "_contract",
          "type": "address"
        },
        {
          "internalType": "uint256",
          "name": "_type",
          "type": "uint256"
        }
      ],
      "name": "registerContract",
      "outputs": [],
      "stateMutability": "nonpayable",
      "type": "function"
    },
    {
      "inputs": [
        {
          "internalType": "address",
          "name": "who",
          "type": "address"
        },
        {
          "internalType": "bytes4",
          "name": "functionSig",
          "type": "bytes4"
        },
        {
          "internalType": "uint256",
          "name": "id",
          "type": "uint256"
        }
      ],
      "name": "removeBypassRule",
      "outputs": [],
      "stateMutability": "nonpayable",
      "type": "function"
    },
    {
      "inputs": [
        {
          "internalType": "address",
          "name": "_depositer",
          "type": "address"
        }
      ],
      "name": "removeDepositer",
      "outputs": [],
      "stateMutability": "nonpayable",
      "type": "function"
    },
    {
      "inputs": [
        {
          "internalType": "address",
          "name": "_minter",
          "type": "address"
        }
      ],
      "name": "removeMinter",
      "outputs": [],
      "stateMutability": "nonpayable",
      "type": "function"
    },
    {
      "inputs": [
        {
          "internalType": "address",
          "name": "_viewer",
          "type": "address"
        }
      ],
      "name": "removeViewer",
      "outputs": [],
      "stateMutability": "nonpayable",
      "type": "function"
    },
    {
      "inputs": [],
      "name": "renounceOwnership",
      "outputs": [],
      "stateMutability": "nonpayable",
      "type": "function"
    },
    {
      "inputs": [
        {
          "internalType": "address",
          "name": "_governance",
          "type": "address"
        }
      ],
      "name": "setGovernance",
      "outputs": [],
      "stateMutability": "nonpayable",
      "type": "function"
    },
    {
      "inputs": [],
      "name": "symbol",
      "outputs": [
        {
          "internalType": "string",
          "name": "",
          "type": "string"
        }
      ],
      "stateMutability": "view",
      "type": "function"
    },
    {
      "inputs": [],
      "name": "toggleBurnable",
      "outputs": [],
      "stateMutability": "nonpayable",
      "type": "function"
    },
    {
      "inputs": [],
      "name": "toggleBypassability",
      "outputs": [],
      "stateMutability": "nonpayable",
      "type": "function"
    },
    {
      "inputs": [],
      "name": "toggleClaimable",
      "outputs": [],
      "stateMutability": "nonpayable",
      "type": "function"
    },
    {
      "inputs": [],
      "name": "togglePrivateTransferability",
      "outputs": [],
      "stateMutability": "nonpayable",
      "type": "function"
    },
    {
      "inputs": [],
      "name": "toggleTransferable",
      "outputs": [],
      "stateMutability": "nonpayable",
      "type": "function"
    },
    {
      "inputs": [],
      "name": "toggleVisibility",
      "outputs": [],
      "stateMutability": "nonpayable",
      "type": "function"
    },
    {
      "inputs": [],
      "name": "totalSupply",
      "outputs": [
        {
          "internalType": "uint256",
          "name": "",
          "type": "uint256"
        }
      ],
      "stateMutability": "view",
      "type": "function"
    },
    {
      "inputs": [
        {
          "internalType": "address",
          "name": "recipient",
          "type": "address"
        },
        {
          "internalType": "uint256",
          "name": "amount",
          "type": "uint256"
        }
      ],
      "name": "transfer",
      "outputs": [
        {
          "internalType": "bool",
          "name": "",
          "type": "bool"
        }
      ],
      "stateMutability": "nonpayable",
      "type": "function"
    },
    {
      "inputs": [
        {
          "internalType": "address",
          "name": "to",
          "type": "address"
        },
        {
          "internalType": "uint256",
          "name": "amount",
          "type": "uint256"
        },
        {
          "internalType": "bool",
          "name": "_private",
          "type": "bool"
        }
      ],
      "name": "transfer",
      "outputs": [],
      "stateMutability": "nonpayable",
      "type": "function"
    },
    {
      "inputs": [
        {
          "internalType": "address",
          "name": "sender",
          "type": "address"
        },
        {
          "internalType": "address",
          "name": "recipient",
          "type": "address"
        },
        {
          "internalType": "uint256",
          "name": "amount",
          "type": "uint256"
        }
      ],
      "name": "transferFrom",
      "outputs": [
        {
          "internalType": "bool",
          "name": "",
          "type": "bool"
        }
      ],
      "stateMutability": "nonpayable",
      "type": "function"
    },
    {
      "inputs": [
        {
          "internalType": "address",
          "name": "_governance",
          "type": "address"
        }
      ],
      "name": "transferOwnership",
      "outputs": [],
      "stateMutability": "nonpayable",
      "type": "function"
    },
    {
      "inputs": [],
      "name": "transferable",
      "outputs": [
        {
          "internalType": "bool",
          "name": "",
          "type": "bool"
        }
      ],
      "stateMutability": "view",
      "type": "function"
    },
    {
      "inputs": [],
      "name": "unLock",
      "outputs": [],
      "stateMutability": "nonpayable",
      "type": "function"
    },
    {
      "inputs": [
        {
          "internalType": "address",
          "name": "_contract",
          "type": "address"
        },
        {
          "internalType": "uint256",
          "name": "index",
          "type": "uint256"
        }
      ],
      "name": "unregisterContract",
      "outputs": [],
      "stateMutability": "nonpayable",
      "type": "function"
    },
    {
      "inputs": [],
      "name": "version",
      "outputs": [
        {
          "internalType": "uint256",
          "name": "",
          "type": "uint256"
        }
      ],
      "stateMutability": "pure",
      "type": "function"
    },
    {
      "inputs": [
        {
          "internalType": "address",
          "name": "",
          "type": "address"
        }
      ],
      "name": "viewers",
      "outputs": [
        {
          "internalType": "bool",
          "name": "",
          "type": "bool"
        }
      ],
      "stateMutability": "view",
      "type": "function"
    },
    {
      "inputs": [],
      "name": "visible",
      "outputs": [
        {
          "internalType": "bool",
          "name": "",
          "type": "bool"
        }
      ],
      "stateMutability": "view",
      "type": "function"
    },
    {
      "inputs": [],
      "name": "visibleOrAdmin",
      "outputs": [
        {
          "internalType": "bool",
          "name": "",
          "type": "bool"
        }
      ],
      "stateMutability": "view",
      "type": "function"
    },
    {
      "inputs": [
        {
          "internalType": "uint256",
          "name": "amount",
          "type": "uint256"
        }
      ],
      "name": "withdraw",
      "outputs": [],
      "stateMutability": "nonpayable",
      "type": "function"
    }
  ],
  "bytecode": "0x608060405234801561001057600080fd5b50612f74806100206000396000f3fe608060405234801561001057600080fd5b506004361061029e5760003560e01c806306fdde03146102a3578063095ea7b3146102c1578063152f0eb5146102e457806317ac10db146102f957806318160ddd1461030c5780631986166f146103225780631beab0f61461033557806323b872dd146103485780632adbc37d1461035b5780632cf1dacb146103635780632e1a7d4d146103765780633092afd514610389578063313ce5671461039c57806339509351146103bb5780633bce1d48146103ce57806340897bbe146103e057806340c10f19146103e8578063425a71c0146103fb57806342966c681461040e578063432d6c671461042157806343918ad814610429578063439ec2ee146104315780634437d99e1461043957806354fd4d5014610441578063601f8cf5146104485780636384c0451461045b57806370a082311461047e578063715018a61461049157806374478bb3146104995780637b74297d146104a65780638129fc1c146104c65780638da5cb5b146104ce57806390f3173b146104ee57806392ff0d31146104f657806395d89b4114610508578063983b2d5614610510578063a0065b5b14610523578063a07c7ce41461052b578063a2f0d9571461053d578063a457c2d714610550578063a69439aa14610563578063a8f1602c14610586578063a9059cbb146105b3578063ab033ea9146105c6578063af6a6d79146105d9578063b3cc59db146105e1578063c08c9f9a146105e9578063cf2c52cb146105f1578063cf30901214610604578063d1d989141461060c578063d47356a31461061f578063d6bfc22f14610632578063da424e6f1461063a578063dd62ed3e14610642578063e1ad11621461067b578063ed10e33c1461068e578063f2fde38b14610696578063f46eccc4146106a9575b600080fd5b6102ab6106cc565b6040516102b89190612bac565b60405180910390f35b6102d46102cf366004612a21565b61075a565b60405190151581526020016102b8565b6102f76102f2366004612a21565b610770565b005b6102f76103073660046128d3565b610847565b6103146108c2565b6040519081526020016102b8565b6102f761033036600461295a565b610911565b6102f7610343366004612a21565b6109b5565b6102d461035636600461291f565b610b6e565b6102f7610bb8565b6102f761037136600461295a565b610c07565b6102f7610384366004612afb565b610ca7565b6102f76103973660046128d3565b610cb4565b6074546103a99060ff1681565b60405160ff90911681526020016102b8565b6102d46103c9366004612a21565b610d2c565b606a54600160b81b900460ff166102d4565b6102f7610d67565b6102f76103f6366004612a21565b610dad565b6102f7610409366004612a8d565b610e2c565b6102f761041c366004612afb565b610ec3565b6102d4610f1c565b6102f7610f3f565b6102f7610fb7565b610314611023565b6002610314565b6102f76104563660046128d3565b611042565b6102d46104693660046128d3565b606e6020526000908152604090205460ff1681565b61031461048c3660046128d3565b6110bd565b6102f7611125565b6065546102d49060ff1681565b6104b96104b4366004612afb565b611163565b6040516102b89190612b5f565b6102f76111cf565b6104d66112ae565b6040516001600160a01b0390911681526020016102b8565b6102f76112bd565b606a54600160a01b900460ff166102d4565b6102ab611350565b6102f761051e3660046128d3565b61135d565b6102d46113d8565b606a54600160a81b900460ff166102d4565b6102f761054b366004612afb565b6113f1565b6102d461055e366004612a21565b6114aa565b6102d46105713660046128d3565b606d6020526000908152604090205460ff1681565b6102d4610594366004612a21565b6001600160a01b03919091166000908152606860205260409020541490565b6102d46105c1366004612a21565b6114f9565b6102f76105d43660046128d3565b611530565b6102d4611623565b6102f7611633565b6102d46116ab565b6102f76105ff3660046129a4565b6116cd565b6102d461173c565b6102f761061a3660046128d3565b61175a565b6102f761062d3660046128d3565b6117d2565b6102f761184a565b6102f76118c2565b6103146106503660046128ed565b6001600160a01b03918216600090815260706020908152604080832093909416825291909152205490565b6102f7610689366004612a4a565b61193a565b6102f76119e8565b6102f76106a43660046128d3565b611abd565b6102d46106b73660046128d3565b606c6020526000908152604090205460ff1681565b607280546106d990612e2a565b80601f016020809104026020016040519081016040528092919081815260200182805461070590612e2a565b80156107525780601f1061072757610100808354040283529160200191610752565b820191906000526020600020905b81548152906001019060200180831161073557829003601f168201915b505050505081565b6000610767338484611b1d565b50600192915050565b3360008181526068602052604090205415158061079c5750336107916112ae565b6001600160a01b0316145b6107f95760405162461bcd60e51b8152602060048201526024808201527f436f6e7472616374206973206e6f742072656769737465726564206e6f72204f6044820152633bb732b960e11b60648201526084015b60405180910390fd5b506001600160a01b03909116600081815260686020908152604080832085905593825260698152928120805460018101825590825292902090910180546001600160a01b0319169091179055565b61084f611c67565b8061085d575061085d611ca8565b6108795760405162461bcd60e51b81526004016107f090612c8f565b61088161173c565b1561089e5760405162461bcd60e51b81526004016107f090612db3565b6001600160a01b03166000908152606e60205260409020805460ff19166001179055565b606a54600090600160b01b900460ff16806108e057506108e0611cea565b806108ee57506108ee611c67565b61090a5760405162461bcd60e51b81526004016107f090612d0b565b5060715490565b610919611c67565b806109275750610927611ca8565b6109435760405162461bcd60e51b81526004016107f090612c8f565b6001600160a01b03831660009081526066602090815260408083206001600160e01b0319861684529091529020805460ff1916600117905580156109b0576001600160a01b03831660009081526067602090815260408083208484529091529020805460ff191660011790555b505050565b6109bd611c67565b806109cb57506109cb611ca8565b6109e75760405162461bcd60e51b81526004016107f090612c8f565b6001600160a01b0382166000908152606860205260409020548290610a4b5760405162461bcd60e51b815260206004820152601a60248201527910dbdb9d1c9858dd081a5cc81b9bdd081c9959da5cdd195c995960321b60448201526064016107f0565b6001600160a01b03831660009081526068602090815260408083205483526069909152902080548190610a8090600190612e13565b81548110610a9e57634e487b7160e01b600052603260045260246000fd5b9060005260206000200160009054906101000a90046001600160a01b0316818481548110610adc57634e487b7160e01b600052603260045260246000fd5b9060005260206000200160006101000a8154816001600160a01b0302191690836001600160a01b0316021790555080805480610b2857634e487b7160e01b600052603160045260246000fd5b60008281526020808220830160001990810180546001600160a01b03191690559092019092556001600160a01b0395909516815260689094525050604082209190915550565b606a54600090600160a01b900460ff16610b9a5760405162461bcd60e51b81526004016107f090612c4c565b610bad848484610ba8611623565b611d1c565b506001949350505050565b610bc0611c67565b80610bce5750610bce611ca8565b610bea5760405162461bcd60e51b81526004016107f090612c8f565b6065805461ff001981166101009182900460ff1615909102179055565b610c0f611c67565b80610c1d5750610c1d611ca8565b610c395760405162461bcd60e51b81526004016107f090612c8f565b6001600160a01b03831660009081526066602090815260408083206001600160e01b0319861684529091529020805460ff1916905580156109b0576001600160a01b03831660009081526067602090815260408083208484529091529020805460ff19166001179055505050565b610cb13382611d54565b50565b610cbc611c67565b80610cca5750610cca611ca8565b610ce65760405162461bcd60e51b81526004016107f090612c8f565b610cee61173c565b15610d0b5760405162461bcd60e51b81526004016107f090612db3565b6001600160a01b03166000908152606c60205260409020805460ff19169055565b3360008181526070602090815260408083206001600160a01b03871684529091528120549091610767918590610d629086611f7e565b611b1d565b610d6f611c67565b80610d7d5750610d7d611ca8565b610d995760405162461bcd60e51b81526004016107f090612c8f565b6065805460ff19811660ff90911615179055565b610db5611fe2565b610df95760405162461bcd60e51b81526020600482015260156024820152744e6f204d696e74696e672050726976696c6167657360581b60448201526064016107f0565b610e0161173c565b15610e1e5760405162461bcd60e51b81526004016107f090612db3565b610e288282611fed565b5050565b610e34611c67565b80610e425750610e42611ca8565b610e5e5760405162461bcd60e51b81526004016107f090612c8f565b610e6661173c565b15610e835760405162461bcd60e51b81526004016107f090612db3565b8251610e9690607290602086019061279d565b508151610eaa90607390602085019061279d565b506074805460ff191660ff929092169190911790555050565b606a54600160a81b900460ff16610ca75760405162461bcd60e51b815260206004820152601f60248201527f436f6e747261637420646f6573206e6f7420616c6c6f77206275726e696e670060448201526064016107f0565b606a54600090600160b01b900460ff1680610f3a5750610f3a611c67565b905090565b610f47611c67565b80610f555750610f55611ca8565b610f715760405162461bcd60e51b81526004016107f090612c8f565b610f7961173c565b15610f965760405162461bcd60e51b81526004016107f090612db3565b606a805460ff60b01b198116600160b01b9182900460ff1615909102179055565b610fbf611c67565b80610fcd5750610fcd611ca8565b610fe95760405162461bcd60e51b81526004016107f090612c8f565b610ff161173c565b1561100e5760405162461bcd60e51b81526004016107f090612db3565b606a805460ff60c01b1916600160c01b179055565b600043606b54111561103c57606b54610f3a90436121ee565b50600090565b61104a611c67565b806110585750611058611ca8565b6110745760405162461bcd60e51b81526004016107f090612c8f565b61107c61173c565b156110995760405162461bcd60e51b81526004016107f090612db3565b6001600160a01b03166000908152606d60205260409020805460ff19166001179055565b606a54600090600160b01b900460ff16806110db57506110db611cea565b806110e957506110e9611c67565b6111055760405162461bcd60e51b81526004016107f090612d0b565b506001600160a01b0381166000908152606f60205260409020545b919050565b61112d611c67565b8061113b575061113b611ca8565b6111575760405162461bcd60e51b81526004016107f090612c8f565b6111616000612230565b565b6000818152606960209081526040918290208054835181840281018401909452808452606093928301828280156111c357602002820191906000526020600020905b81546001600160a01b031681526001909101906020018083116111a5575b50505050509050919050565b600054610100900460ff166111ea5760005460ff16156111ee565b303b155b6112515760405162461bcd60e51b815260206004820152602e60248201527f496e697469616c697a61626c653a20636f6e747261637420697320616c72656160448201526d191e481a5b9a5d1a585b1a5e995960921b60648201526084016107f0565b600054610100900460ff16158015611273576000805461ffff19166101011790555b61127b612282565b606a805465ffffffffffff60a01b19166201010160a01b1790556000606b558015610cb1576000805461ff001916905550565b6033546001600160a01b031690565b6112c5611c67565b806112d357506112d3611ca8565b6112ef5760405162461bcd60e51b81526004016107f090612c8f565b6112f76116ab565b156113145760405162461bcd60e51b81526004016107f090612bff565b61131c6113d8565b156113395760405162461bcd60e51b81526004016107f090612cbf565b606a805461ffff60c01b191661010160c01b179055565b607380546106d990612e2a565b611365611c67565b806113735750611373611ca8565b61138f5760405162461bcd60e51b81526004016107f090612c8f565b61139761173c565b156113b45760405162461bcd60e51b81526004016107f090612db3565b6001600160a01b03166000908152606c60205260409020805460ff19166001179055565b6000606b54600014158015610f3a575050606b54431090565b6113f9611c67565b806114075750611407611ca8565b6114235760405162461bcd60e51b81526004016107f090612c8f565b61142b61173c565b156114485760405162461bcd60e51b81526004016107f090612db3565b8043106114a55760405162461bcd60e51b815260206004820152602560248201527f50726f766964656420426c6f636b206e756d626e657220697320696e20746865604482015264081c185cdd60da1b60648201526084016107f0565b606b55565b60006107673384610d6285604051806060016040528060258152602001612f1a602591393360009081526070602090815260408083206001600160a01b038d16845290915290205491906122b1565b606a54600090600160a01b900460ff166115255760405162461bcd60e51b81526004016107f090612c4c565b6107673384846122eb565b611538611c67565b806115465750611546611ca8565b6115625760405162461bcd60e51b81526004016107f090612c8f565b61156a61173c565b156115875760405162461bcd60e51b81526004016107f090612db3565b606a80546001600160a01b039081166000908152606c60208181526040808420805460ff19908116909155865486168552606d808452828620805483169055875487168652606e8085528387208054841690559689168087529484528286208054831660019081179091559084528286208054831682179055959092529092208054909216909217905581546001600160a01b03191617905550565b606a54600160b01b900460ff1690565b61163b611c67565b806116495750611649611ca8565b6116655760405162461bcd60e51b81526004016107f090612c8f565b61166d61173c565b1561168a5760405162461bcd60e51b81526004016107f090612db3565b606a805460ff60a81b198116600160a81b9182900460ff1615909102179055565b60006116b561173c565b8015610f3a575050606a54600160c81b900460ff1690565b6116d5612328565b61171c5760405162461bcd60e51b81526020600482015260186024820152774e6f204465706f736974696e672050726976696c6167657360401b60448201526064016107f0565b600061172a82840184612afb565b90506117368482611fed565b50505050565b606a54600090600160c01b900460ff1680610f3a5750610f3a6113d8565b611762611c67565b806117705750611770611ca8565b61178c5760405162461bcd60e51b81526004016107f090612c8f565b61179461173c565b156117b15760405162461bcd60e51b81526004016107f090612db3565b6001600160a01b03166000908152606d60205260409020805460ff19169055565b6117da611c67565b806117e857506117e8611ca8565b6118045760405162461bcd60e51b81526004016107f090612c8f565b61180c61173c565b156118295760405162461bcd60e51b81526004016107f090612db3565b6001600160a01b03166000908152606e60205260409020805460ff19169055565b611852611c67565b806118605750611860611ca8565b61187c5760405162461bcd60e51b81526004016107f090612c8f565b61188461173c565b156118a15760405162461bcd60e51b81526004016107f090612db3565b606a805460ff60a01b198116600160a01b9182900460ff1615909102179055565b6118ca611c67565b806118d857506118d8611ca8565b6118f45760405162461bcd60e51b81526004016107f090612c8f565b6118fc61173c565b156119195760405162461bcd60e51b81526004016107f090612db3565b606a805460ff60b81b198116600160b81b9182900460ff1615909102179055565b606a54600160a01b900460ff166119635760405162461bcd60e51b81526004016107f090612c4c565b606a54600160b81b900460ff168061197e575061197e611c67565b6119dc5760405162461bcd60e51b815260206004820152602960248201527f436f6e74726163742063616e6e6f742073656e642070726976617465207472616044820152686e73616374696f6e7360b81b60648201526084016107f0565b6109b033848484612333565b6119f0611c67565b806119fe57506119fe611ca8565b611a1a5760405162461bcd60e51b81526004016107f090612c8f565b611a226116ab565b15611a3f5760405162461bcd60e51b81526004016107f090612bff565b611a476113d8565b15611a645760405162461bcd60e51b81526004016107f090612cbf565b611a6c61173c565b611aae5760405162461bcd60e51b815260206004820152601360248201527210dbdb9d1c9858dd081b9bdd081b1bd8dad959606a1b60448201526064016107f0565b606a805460ff60c01b19169055565b611ac5611c67565b80611ad35750611ad3611ca8565b611aef5760405162461bcd60e51b81526004016107f090612c8f565b611af761173c565b15611b145760405162461bcd60e51b81526004016107f090612db3565b611587816126cd565b6001600160a01b038316611b7f5760405162461bcd60e51b8152602060048201526024808201527f45524332303a20617070726f76652066726f6d20746865207a65726f206164646044820152637265737360e01b60648201526084016107f0565b6001600160a01b038216611be05760405162461bcd60e51b815260206004820152602260248201527f45524332303a20617070726f766520746f20746865207a65726f206164647265604482015261737360f01b60648201526084016107f0565b6001600160a01b038084166000908152607060209081526040808320938616835292905220819055611c10611623565b156109b057816001600160a01b0316836001600160a01b03167f8c5be1e5ebec7d5bd14f71427d1e84f3dd0314c0f7b2291e5b200ac8c7c3b92583604051611c5a91815260200190565b60405180910390a3505050565b606a546000906001600160a01b0316336001600160a01b03161480610f3a5750611c8f6112ae565b6001600160a01b0316336001600160a01b031614905090565b606554600090610100900460ff168015610f3a57505033600090815260666020908152604080832083356001600160e01b031916845290915290205460ff1690565b6000606d81335b6001600160a01b0316815260208101919091526040016000205460ff1680610f3a5750611c8f6112ae565b606a54600090600160a01b900460ff16611d485760405162461bcd60e51b81526004016107f090612c4c565b610bad85858585612333565b6001600160a01b038216611db45760405162461bcd60e51b815260206004820152602160248201527f45524332303a206275726e2066726f6d20746865207a65726f206164647265736044820152607360f81b60648201526084016107f0565b611df181604051806060016040528060228152602001612e92602291396001600160a01b0385166000908152606f602052604090205491906122b1565b6001600160a01b0383166000908152606f6020526040902055607154611e1790826121ee565b60715560036000526069602052600080516020612eda8339815191525415801590611e8e5750600360009081526069602052600080516020612eda83398151915280548290611e7657634e487b7160e01b600052603260045260246000fd5b6000918252602090912001546001600160a01b031614155b15611f3d57600360009081526069602052600080516020612eda8339815191528054909190611ecd57634e487b7160e01b600052603260045260246000fd5b600091825260208220015460405163b68c437960e01b81526001600160a01b039091169163b68c437991611f0a9186918690600390600401612b13565b600060405180830381600087803b158015611f2457600080fd5b505af1158015611f38573d6000803e3d6000fd5b505050505b611f45611623565b15610e28576040518181526000906001600160a01b03841690600080516020612efa833981519152906020015b60405180910390a35050565b600080611f8b8385612dfb565b905083811015611fdb5760405162461bcd60e51b815260206004820152601b60248201527a536166654d6174683a206164646974696f6e206f766572666c6f7760281b60448201526064016107f0565b9392505050565b6000606c8133611cf1565b6001600160a01b0382166120435760405162461bcd60e51b815260206004820152601f60248201527f45524332303a206d696e7420746f20746865207a65726f20616464726573730060448201526064016107f0565b6071546120509082611f7e565b6071556001600160a01b0382166000908152606f60205260409020546120769082611f7e565b6001600160a01b0383166000908152606f602090815260408220929092556003905260699052600080516020612eda83398151915254158015906121065750600360009081526069602052600080516020612eda833981519152805482906120ee57634e487b7160e01b600052603260045260246000fd5b6000918252602090912001546001600160a01b031614155b156121b557600360009081526069602052600080516020612eda833981519152805490919061214557634e487b7160e01b600052603260045260246000fd5b600091825260208220015460405163b68c437960e01b81526001600160a01b039091169163b68c4379916121829190869086908390600401612b13565b600060405180830381600087803b15801561219c57600080fd5b505af11580156121b0573d6000803e3d6000fd5b505050505b6121bd611623565b15610e28576040518181526001600160a01b03831690600090600080516020612efa83398151915290602001611f72565b6000611fdb83836040518060400160405280601e81526020017f536166654d6174683a207375627472616374696f6e206f766572666c6f7700008152506122b1565b603380546001600160a01b038381166001600160a01b0319831681179093556040519116919082907f8be0079c531659141344cd1fd0a4f28419497f9722a3daafe3b4186f6b6457e090600090a35050565b600054610100900460ff166122a95760405162461bcd60e51b81526004016107f090612d68565b61116161276d565b600081848411156122d55760405162461bcd60e51b81526004016107f09190612bac565b5060006122e28486612e13565b95945050505050565b606a54600160a01b900460ff166123145760405162461bcd60e51b81526004016107f090612c4c565b6109b0838383612322611623565b15612333565b6000606e8133611cf1565b606a54600160a01b900460ff1661235c5760405162461bcd60e51b81526004016107f090612c4c565b6001600160a01b0384166123c05760405162461bcd60e51b815260206004820152602560248201527f45524332303a207472616e736665722066726f6d20746865207a65726f206164604482015264647265737360d81b60648201526084016107f0565b6001600160a01b0384166000908152607060209081526040808320338452909152812054831115906123f0611ca8565b90506001600160a01b0386163314806124065750815b8061240e5750805b61247d5760405162461bcd60e51b815260206004820152603a60248201527f45524332303a207472616e7366657220616d6f756e74206578636565647320616044820152796c6c6f77616e6365206f72206e6f742062797061737361626c6560301b60648201526084016107f0565b81156124d6576001600160a01b03861660009081526070602090815260408083203384529091529020546124b190856121ee565b6001600160a01b03871660009081526070602090815260408083203384529091529020555b61251384604051806060016040528060268152602001612eb4602691396001600160a01b0389166000908152606f602052604090205491906122b1565b6001600160a01b038088166000908152606f602052604080822093909355908716815220546125429085611f7e565b6001600160a01b0386166000908152606f602090815260408220929092556003905260699052600080516020612eda83398151915254158015906125d25750600360009081526069602052600080516020612eda833981519152805482906125ba57634e487b7160e01b600052603260045260246000fd5b6000918252602090912001546001600160a01b031614155b1561268457600360009081526069602052600080516020612eda833981519152805490919061261157634e487b7160e01b600052603260045260246000fd5b60009182526020909120015460405163b68c437960e01b81526001600160a01b039091169063b68c43799061265190899089908990600190600401612b13565b600060405180830381600087803b15801561266b57600080fd5b505af115801561267f573d6000803e3d6000fd5b505050505b826126c557846001600160a01b0316866001600160a01b0316600080516020612efa833981519152866040516126bc91815260200190565b60405180910390a35b505050505050565b6126d5611c67565b806126e357506126e3611ca8565b6126ff5760405162461bcd60e51b81526004016107f090612c8f565b6001600160a01b0381166127645760405162461bcd60e51b815260206004820152602660248201527f4f776e61626c653a206e6577206f776e657220697320746865207a65726f206160448201526564647265737360d01b60648201526084016107f0565b610cb181612230565b600054610100900460ff166127945760405162461bcd60e51b81526004016107f090612d68565b61116133612230565b8280546127a990612e2a565b90600052602060002090601f0160209004810192826127cb5760008555612811565b82601f106127e457805160ff1916838001178555612811565b82800160010185558215612811579182015b828111156128115782518255916020019190600101906127f6565b5061281d929150612821565b5090565b5b8082111561281d5760008155600101612822565b80356001600160a01b038116811461112057600080fd5b600082601f83011261285d578081fd5b81356001600160401b038082111561287757612877612e7b565b604051601f8301601f19908116603f0116810190828211818310171561289f5761289f612e7b565b816040528381528660208588010111156128b7578485fd5b8360208701602083013792830160200193909352509392505050565b6000602082840312156128e4578081fd5b611fdb82612836565b600080604083850312156128ff578081fd5b61290883612836565b915061291660208401612836565b90509250929050565b600080600060608486031215612933578081fd5b61293c84612836565b925061294a60208501612836565b9150604084013590509250925092565b60008060006060848603121561296e578283fd5b61297784612836565b925060208401356001600160e01b031981168114612993578283fd5b929592945050506040919091013590565b6000806000604084860312156129b8578283fd5b6129c184612836565b925060208401356001600160401b03808211156129dc578384fd5b818601915086601f8301126129ef578384fd5b8135818111156129fd578485fd5b876020828501011115612a0e578485fd5b6020830194508093505050509250925092565b60008060408385031215612a33578182fd5b612a3c83612836565b946020939093013593505050565b600080600060608486031215612a5e578283fd5b612a6784612836565b92506020840135915060408401358015158114612a82578182fd5b809150509250925092565b600080600060608486031215612aa1578283fd5b83356001600160401b0380821115612ab7578485fd5b612ac38783880161284d565b94506020860135915080821115612ad8578384fd5b50612ae58682870161284d565b925050604084013560ff81168114612a82578182fd5b600060208284031215612b0c578081fd5b5035919050565b6001600160a01b03858116825284166020820152604081018390526080810160048310612b5057634e487b7160e01b600052602160045260246000fd5b82606083015295945050505050565b6020808252825182820181905260009190848201906040850190845b81811015612ba05783516001600160a01b031683529284019291840191600101612b7b565b50909695505050505050565b6000602080835283518082850152825b81811015612bd857858101830151858201604001528201612bbc565b81811115612be95783604083870101525b50601f01601f1916929092016040019392505050565b6020808252602d908201527f436f6e7472616374206c6f636b656420666f726576657220746f20676f76657260408201526c6e616e6365206368616e67657360981b606082015260800190565b60208082526023908201527f436f6e747261637420646f6573206e6f7420616c6c6f77207472616e73666572604082015262696e6760e81b606082015260800190565b60208082526016908201527529b2b73232b91034b9903737ba1023b7bb32b93732b960511b604082015260600190565b6020808252602c908201527f436f6e747261637420686173206265656e206c6f636b656420756e74696c206160408201526b10313637b1b5b73ab6b132b960a11b606082015260800190565b6020808252603f908201527f436f6e7472616374206973207072697661746520616e6420796f75206172652060408201527f6e6f7420476f7665726e6572206f72206f6e2076696577657273206c69737400606082015260800190565b6020808252602b908201527f496e697469616c697a61626c653a20636f6e7472616374206973206e6f74206960408201526a6e697469616c697a696e6760a81b606082015260800190565b60208082526028908201527f436f6e7472616374206973206c6f636b656420746f20676f7665726e616e6365604082015267206368616e67657360c01b606082015260800190565b60008219821115612e0e57612e0e612e65565b500190565b600082821015612e2557612e25612e65565b500390565b600181811c90821680612e3e57607f821691505b60208210811415612e5f57634e487b7160e01b600052602260045260246000fd5b50919050565b634e487b7160e01b600052601160045260246000fd5b634e487b7160e01b600052604160045260246000fdfe45524332303a206275726e20616d6f756e7420657863656564732062616c616e636545524332303a207472616e7366657220616d6f756e7420657863656564732062616c616e636556d594188730cd2db4f97166f7e9b0b9d5caa8ac32e0506fd5faeb5b224f8813ddf252ad1be2c89b69c2b068fc378daa952ba7f163c4a11628f55a4df523b3ef45524332303a2064656372656173656420616c6c6f77616e63652062656c6f77207a65726fa264697066735822122095d4a5281814e85b8374f7fbc66571274422aa164c3e885cb760d34024ccdced64736f6c63430008040033",
  "linkReferences": {},
  "deployedLinkReferences": {}
}