{
  "_format": "hh-sol-artifact-1",
  "contractName": "EmblemVault",
  "sourceName": "contracts/EmblemVault.sol",
  "abi": [
    {
      "anonymous": false,
      "inputs": [
        {
          "indexed": true,
          "internalType": "address",
          "name": "_owner",
          "type": "address"
        },
        {
          "indexed": true,
          "internalType": "address",
          "name": "_approved",
          "type": "address"
        },
        {
          "indexed": true,
          "internalType": "uint256",
          "name": "_tokenId",
          "type": "uint256"
        }
      ],
      "name": "Approval",
      "type": "event"
    },
    {
      "anonymous": false,
      "inputs": [
        {
          "indexed": true,
          "internalType": "address",
          "name": "_owner",
          "type": "address"
        },
        {
          "indexed": true,
          "internalType": "address",
          "name": "_operator",
          "type": "address"
        },
        {
          "indexed": false,
          "internalType": "bool",
          "name": "_approved",
          "type": "bool"
        }
      ],
      "name": "ApprovalForAll",
      "type": "event"
    },
    {
      "anonymous": false,
      "inputs": [
        {
          "indexed": true,
          "internalType": "address",
          "name": "previousOwner",
          "type": "address"
        },
        {
          "indexed": true,
          "internalType": "address",
          "name": "newOwner",
          "type": "address"
        }
      ],
      "name": "OwnershipTransferred",
      "type": "event"
    },
    {
      "anonymous": false,
      "inputs": [
        {
          "indexed": true,
          "internalType": "address",
          "name": "_from",
          "type": "address"
        },
        {
          "indexed": true,
          "internalType": "address",
          "name": "_to",
          "type": "address"
        },
        {
          "indexed": true,
          "internalType": "uint256",
          "name": "_tokenId",
          "type": "uint256"
        }
      ],
      "name": "Transfer",
      "type": "event"
    },
    {
      "anonymous": false,
      "inputs": [
        {
          "indexed": false,
          "internalType": "string",
          "name": "_from",
          "type": "string"
        },
        {
          "indexed": false,
          "internalType": "string",
          "name": "_to",
          "type": "string"
        }
      ],
      "name": "UpdatedContractURI",
      "type": "event"
    },
    {
      "inputs": [
        {
          "internalType": "address",
          "name": "who",
          "type": "address"
        },
        {
          "internalType": "bytes4",
          "name": "functionSig",
          "type": "bytes4"
        },
        {
          "internalType": "uint256",
          "name": "id",
          "type": "uint256"
        }
      ],
      "name": "addBypassRule",
      "outputs": [],
      "stateMutability": "nonpayable",
      "type": "function"
    },
    {
      "inputs": [
        {
          "internalType": "address",
          "name": "_approved",
          "type": "address"
        },
        {
          "internalType": "uint256",
          "name": "_tokenId",
          "type": "uint256"
        }
      ],
      "name": "approve",
      "outputs": [],
      "stateMutability": "nonpayable",
      "type": "function"
    },
    {
      "inputs": [
        {
          "internalType": "address",
          "name": "_owner",
          "type": "address"
        }
      ],
      "name": "balanceOf",
      "outputs": [
        {
          "internalType": "uint256",
          "name": "",
          "type": "uint256"
        }
      ],
      "stateMutability": "view",
      "type": "function"
    },
    {
      "inputs": [
        {
          "internalType": "uint256",
          "name": "_tokenId",
          "type": "uint256"
        }
      ],
      "name": "burn",
      "outputs": [],
      "stateMutability": "nonpayable",
      "type": "function"
    },
    {
      "inputs": [
        {
          "internalType": "string",
          "name": "_name",
          "type": "string"
        },
        {
          "internalType": "string",
          "name": "_symbol",
          "type": "string"
        }
      ],
      "name": "changeName",
      "outputs": [],
      "stateMutability": "nonpayable",
      "type": "function"
    },
    {
      "inputs": [],
      "name": "contractURI",
      "outputs": [
        {
          "internalType": "string",
          "name": "",
          "type": "string"
        }
      ],
      "stateMutability": "view",
      "type": "function"
    },
    {
      "inputs": [
        {
          "internalType": "uint256",
          "name": "_type",
          "type": "uint256"
        }
      ],
      "name": "getAllRegisteredContractsOfType",
      "outputs": [
        {
          "internalType": "address[]",
          "name": "",
          "type": "address[]"
        }
      ],
      "stateMutability": "view",
      "type": "function"
    },
    {
      "inputs": [
        {
          "internalType": "uint256",
          "name": "_tokenId",
          "type": "uint256"
        }
      ],
      "name": "getApproved",
      "outputs": [
        {
          "internalType": "address",
          "name": "",
          "type": "address"
        }
      ],
      "stateMutability": "view",
      "type": "function"
    },
    {
      "inputs": [
        {
          "internalType": "address",
          "name": "_owner",
          "type": "address"
        }
      ],
      "name": "getOwnerNFTCount",
      "outputs": [
        {
          "internalType": "uint256",
          "name": "",
          "type": "uint256"
        }
      ],
      "stateMutability": "view",
      "type": "function"
    },
    {
      "inputs": [],
      "name": "initialize",
      "outputs": [],
      "stateMutability": "nonpayable",
      "type": "function"
    },
    {
      "inputs": [
        {
          "internalType": "address",
          "name": "_owner",
          "type": "address"
        },
        {
          "internalType": "address",
          "name": "_operator",
          "type": "address"
        }
      ],
      "name": "isApprovedForAll",
      "outputs": [
        {
          "internalType": "bool",
          "name": "",
          "type": "bool"
        }
      ],
      "stateMutability": "view",
      "type": "function"
    },
    {
      "inputs": [],
      "name": "isClaimable",
      "outputs": [
        {
          "internalType": "bool",
          "name": "",
          "type": "bool"
        }
      ],
      "stateMutability": "view",
      "type": "function"
    },
    {
      "inputs": [
        {
          "internalType": "address",
          "name": "_contract",
          "type": "address"
        },
        {
          "internalType": "uint256",
          "name": "_type",
          "type": "uint256"
        }
      ],
      "name": "isRegistered",
      "outputs": [
        {
          "internalType": "bool",
          "name": "",
          "type": "bool"
        }
      ],
      "stateMutability": "view",
      "type": "function"
    },
    {
      "inputs": [
        {
          "internalType": "address",
          "name": "_to",
          "type": "address"
        },
        {
          "internalType": "uint256",
          "name": "_tokenId",
          "type": "uint256"
        },
        {
          "internalType": "string",
          "name": "_uri",
          "type": "string"
        },
        {
          "internalType": "string",
          "name": "_payload",
          "type": "string"
        }
      ],
      "name": "mint",
      "outputs": [],
      "stateMutability": "nonpayable",
      "type": "function"
    },
    {
      "inputs": [],
      "name": "name",
      "outputs": [
        {
          "internalType": "string",
          "name": "_name",
          "type": "string"
        }
      ],
      "stateMutability": "view",
      "type": "function"
    },
    {
      "inputs": [],
      "name": "owner",
      "outputs": [
        {
          "internalType": "address",
          "name": "",
          "type": "address"
        }
      ],
      "stateMutability": "view",
      "type": "function"
    },
    {
      "inputs": [
        {
          "internalType": "uint256",
          "name": "_tokenId",
          "type": "uint256"
        }
      ],
      "name": "ownerOf",
      "outputs": [
        {
          "internalType": "address",
          "name": "_owner",
          "type": "address"
        }
      ],
      "stateMutability": "view",
      "type": "function"
    },
    {
      "inputs": [
        {
          "internalType": "address",
          "name": "_contract",
          "type": "address"
        },
        {
          "internalType": "uint256",
          "name": "_type",
          "type": "uint256"
        }
      ],
      "name": "registerContract",
      "outputs": [],
      "stateMutability": "nonpayable",
      "type": "function"
    },
    {
      "inputs": [
        {
          "internalType": "address",
          "name": "who",
          "type": "address"
        },
        {
          "internalType": "bytes4",
          "name": "functionSig",
          "type": "bytes4"
        },
        {
          "internalType": "uint256",
          "name": "id",
          "type": "uint256"
        }
      ],
      "name": "removeBypassRule",
      "outputs": [],
      "stateMutability": "nonpayable",
      "type": "function"
    },
    {
      "inputs": [],
      "name": "renounceOwnership",
      "outputs": [],
      "stateMutability": "nonpayable",
      "type": "function"
    },
    {
      "inputs": [
        {
          "internalType": "uint256",
          "name": "tokenId",
          "type": "uint256"
        },
        {
          "internalType": "uint256",
          "name": "value",
          "type": "uint256"
        }
      ],
      "name": "royaltyInfo",
      "outputs": [
        {
          "internalType": "address",
          "name": "receiver",
          "type": "address"
        },
        {
          "internalType": "uint256",
          "name": "royaltyAmount",
          "type": "uint256"
        }
      ],
      "stateMutability": "view",
      "type": "function"
    },
    {
      "inputs": [
        {
          "internalType": "address",
          "name": "_from",
          "type": "address"
        },
        {
          "internalType": "address",
          "name": "_to",
          "type": "address"
        },
        {
          "internalType": "uint256",
          "name": "_tokenId",
          "type": "uint256"
        }
      ],
      "name": "safeTransferFrom",
      "outputs": [],
      "stateMutability": "nonpayable",
      "type": "function"
    },
    {
      "inputs": [
        {
          "internalType": "address",
          "name": "_from",
          "type": "address"
        },
        {
          "internalType": "address",
          "name": "_to",
          "type": "address"
        },
        {
          "internalType": "uint256",
          "name": "_tokenId",
          "type": "uint256"
        },
        {
          "internalType": "bytes",
          "name": "_data",
          "type": "bytes"
        }
      ],
      "name": "safeTransferFrom",
      "outputs": [],
      "stateMutability": "nonpayable",
      "type": "function"
    },
    {
      "inputs": [
        {
          "internalType": "address",
          "name": "_operator",
          "type": "address"
        },
        {
          "internalType": "bool",
          "name": "_approved",
          "type": "bool"
        }
      ],
      "name": "setApprovalForAll",
      "outputs": [],
      "stateMutability": "nonpayable",
      "type": "function"
    },
    {
      "inputs": [
        {
          "internalType": "uint256",
          "name": "tokenId",
          "type": "uint256"
        },
        {
          "internalType": "address",
          "name": "recipient",
          "type": "address"
        },
        {
          "internalType": "uint256",
          "name": "value",
          "type": "uint256"
        }
      ],
      "name": "setTokenRoyalty",
      "outputs": [],
      "stateMutability": "nonpayable",
      "type": "function"
    },
    {
      "inputs": [],
      "name": "streamAddress",
      "outputs": [
        {
          "internalType": "address payable",
          "name": "",
          "type": "address"
        }
      ],
      "stateMutability": "view",
      "type": "function"
    },
    {
      "inputs": [
        {
          "internalType": "bytes4",
          "name": "interfaceId",
          "type": "bytes4"
        }
      ],
      "name": "supportsInterface",
      "outputs": [
        {
          "internalType": "bool",
          "name": "",
          "type": "bool"
        }
      ],
      "stateMutability": "view",
      "type": "function"
    },
    {
      "inputs": [],
      "name": "symbol",
      "outputs": [
        {
          "internalType": "string",
          "name": "_symbol",
          "type": "string"
        }
      ],
      "stateMutability": "view",
      "type": "function"
    },
    {
      "inputs": [],
      "name": "toggleBypassability",
      "outputs": [],
      "stateMutability": "nonpayable",
      "type": "function"
    },
    {
      "inputs": [],
      "name": "toggleClaimable",
      "outputs": [],
      "stateMutability": "nonpayable",
      "type": "function"
    },
    {
      "inputs": [
        {
          "internalType": "uint256",
          "name": "_index",
          "type": "uint256"
        }
      ],
      "name": "tokenByIndex",
      "outputs": [
        {
          "internalType": "uint256",
          "name": "",
          "type": "uint256"
        }
      ],
      "stateMutability": "view",
      "type": "function"
    },
    {
      "inputs": [
        {
          "internalType": "address",
          "name": "_owner",
          "type": "address"
        },
        {
          "internalType": "uint256",
          "name": "_index",
          "type": "uint256"
        }
      ],
      "name": "tokenOfOwnerByIndex",
      "outputs": [
        {
          "internalType": "uint256",
          "name": "",
          "type": "uint256"
        }
      ],
      "stateMutability": "view",
      "type": "function"
    },
    {
      "inputs": [
        {
          "internalType": "uint256",
          "name": "_tokenId",
          "type": "uint256"
        }
      ],
      "name": "tokenPayload",
      "outputs": [
        {
          "internalType": "string",
          "name": "",
          "type": "string"
        }
      ],
      "stateMutability": "view",
      "type": "function"
    },
    {
      "inputs": [
        {
          "internalType": "uint256",
          "name": "_tokenId",
          "type": "uint256"
        }
      ],
      "name": "tokenURI",
      "outputs": [
        {
          "internalType": "string",
          "name": "",
          "type": "string"
        }
      ],
      "stateMutability": "view",
      "type": "function"
    },
    {
      "inputs": [],
      "name": "totalSupply",
      "outputs": [
        {
          "internalType": "uint256",
          "name": "",
          "type": "uint256"
        }
      ],
      "stateMutability": "view",
      "type": "function"
    },
    {
      "inputs": [
        {
          "internalType": "address",
          "name": "_from",
          "type": "address"
        },
        {
          "internalType": "address",
          "name": "_to",
          "type": "address"
        },
        {
          "internalType": "uint256",
          "name": "_tokenId",
          "type": "uint256"
        }
      ],
      "name": "transferFrom",
      "outputs": [],
      "stateMutability": "nonpayable",
      "type": "function"
    },
    {
      "inputs": [
        {
          "internalType": "address",
          "name": "newOwner",
          "type": "address"
        }
      ],
      "name": "transferOwnership",
      "outputs": [],
      "stateMutability": "nonpayable",
      "type": "function"
    },
    {
      "inputs": [
        {
          "internalType": "address",
          "name": "_contract",
          "type": "address"
        },
        {
          "internalType": "uint256",
          "name": "index",
          "type": "uint256"
        }
      ],
      "name": "unregisterContract",
      "outputs": [],
      "stateMutability": "nonpayable",
      "type": "function"
    },
    {
      "inputs": [
        {
          "internalType": "string",
          "name": "uri",
          "type": "string"
        }
      ],
      "name": "updateContractURI",
      "outputs": [],
      "stateMutability": "nonpayable",
      "type": "function"
    },
    {
      "inputs": [
        {
          "internalType": "address",
          "name": "_streamAddress",
          "type": "address"
        }
      ],
      "name": "updateStreamAddress",
      "outputs": [],
      "stateMutability": "nonpayable",
      "type": "function"
    },
    {
      "inputs": [
        {
          "internalType": "uint256",
          "name": "_tokenId",
          "type": "uint256"
        },
        {
          "internalType": "string",
          "name": "_uri",
          "type": "string"
        }
      ],
      "name": "updateTokenUri",
      "outputs": [],
      "stateMutability": "nonpayable",
      "type": "function"
    },
    {
      "inputs": [],
      "name": "version",
      "outputs": [
        {
          "internalType": "uint256",
          "name": "",
          "type": "uint256"
        }
      ],
      "stateMutability": "pure",
      "type": "function"
    }
  ],
  "bytecode": "0x60806040526074805460ff1916905534801561001a57600080fd5b5061436e8061002a6000396000f3fe608060405234801561001057600080fd5b50600436106101ee5760003560e01c806301ffc9a7146101f357806306fdde0314610235578063081812fc1461024a578063095ea7b31461026a578063152f0eb51461027f57806318160ddd146102925780631986166f146102a45780631beab0f6146102b757806323b872dd146102ca5780632a55205a146102dd5780632adbc37d1461030f5780632cf1dacb146103175780632f745c591461032a5780632fb102cf1461033d57806330477d361461035057806340897bbe1461036357806342842e0e1461036b57806342966c681461037e5780634f6ccce71461039157806354fd4d50146103a45780636352211e146103ab57806370a08231146103be578063715018a6146103d1578063736cd42d146103d957806374478bb3146103ec5780637b74297d146103f95780637e5b1e24146104195780638129fc1c1461042c57806386575e40146104345780638da5cb5b1461044757806395d89b411461044f5780639713c807146104575780639ad952321461046a578063a22cb4651461047d578063a8f1602c14610490578063b88d4fde146104bd578063bd7f4c8d146104d0578063c87b56dd146104e3578063d31af484146104f6578063e8a3d48514610509578063e985e9c514610511578063f2fde38b1461054d575b600080fd5b61022061020136600461333b565b6001600160e01b03191660009081526020819052604090205460ff1690565b60405190151581526020015b60405180910390f35b61023d610560565b60405161022c91906135db565b61025d61025836600461340d565b6105f2565b60405161022c91906134f1565b61027d610278366004613288565b610674565b005b61027d61028d366004613288565b610816565b6075545b60405190815260200161022c565b61027d6102b2366004613259565b6108e8565b61027d6102c5366004613288565b6109d3565b61027d6102d8366004613178565b610bd3565b6102f06102eb366004613485565b610da4565b604080516001600160a01b03909316835260208301919091520161022c565b61027d610e2f565b61027d610325366004613259565b610ec5565b610296610338366004613288565b610fac565b61027d61034b3660046132b3565b611051565b607b5461025d906001600160a01b031681565b61027d611232565b61027d610379366004613178565b6112bf565b61027d61038c36600461340d565b6112df565b61029661039f36600461340d565b6114c5565b6001610296565b61025d6103b936600461340d565b61153b565b6102966103cc366004613101565b611593565b61027d6115ea565b61027d6103e7366004613101565b61166f565b6066546102209060ff1681565b61040c61040736600461340d565b61170a565b60405161022c919061358e565b61027d6104273660046133db565b611776565b61027d61183b565b61027d610442366004613373565b611ab2565b61025d611b4b565b61023d611b5a565b61027d610465366004613425565b611b69565b61023d61047836600461340d565b611d1c565b61027d61048b366004613228565b611e17565b61022061049e366004613288565b6001600160a01b03919091166000908152606960205260409020541490565b61027d6104cb3660046131b8565b611e83565b6102966104de366004613101565b611ecc565b61023d6104f136600461340d565b611ed7565b61027d61050436600461344b565b611f4c565b61023d61203d565b61022061051f366004613140565b6001600160a01b039182166000908152606e6020908152604080832093909416825291909152205460ff1690565b61027d61055b366004613101565b61204c565b6060606f805461056f9061377f565b80601f016020809104026020016040519081016040528092919081815260200182805461059b9061377f565b80156105e85780601f106105bd576101008083540402835291602001916105e8565b820191906000526020600020905b8154815290600101906020018083116105cb57829003601f168201915b5050505050905090565b6000818152606b60209081526040808320548151808301909252600682526518181998181960d11b9282019290925283916001600160a01b03166106525760405162461bcd60e51b815260040161064991906135db565b60405180910390fd5b506000838152606c60205260409020546001600160a01b031691505b50919050565b6000818152606b602052604090205481906001600160a01b0316338114806106bf57506001600160a01b0381166000908152606e6020908152604080832033845290915290205460ff165b6040518060400160405280600681526020016530303330303360d01b815250906106fc5760405162461bcd60e51b815260040161064991906135db565b506000838152606b6020908152604091829020548251808401909352600683526518181998181960d11b918301919091528491906001600160a01b03166107565760405162461bcd60e51b815260040161064991906135db565b506000848152606b6020908152604091829020548251808401909352600683526506060666060760d31b918301919091526001600160a01b03908116919087168214156107b65760405162461bcd60e51b815260040161064991906135db565b506000858152606c602052604080822080546001600160a01b0319166001600160a01b038a811691821790925591518893918516917f8c5be1e5ebec7d5bd14f71427d1e84f3dd0314c0f7b2291e5b200ac8c7c3b92591a4505050505050565b33600081815260696020526040902054151580610842575033610837611b4b565b6001600160a01b0316145b61089a5760405162461bcd60e51b8152602060048201526024808201527f436f6e7472616374206973206e6f742072656769737465726564206e6f72204f6044820152633bb732b960e11b6064820152608401610649565b506001600160a01b039091166000818152606960209081526040808320859055938252606a8152928120805460018101825590825292902090910180546001600160a01b0319169091179055565b606654600090610100900460ff168015610927575033600090815260676020908152604080832083356001600160e01b031916845290915290205460ff165b905033610932611b4b565b6001600160a01b031614806109445750805b6109605760405162461bcd60e51b8152600401610649906136a9565b6001600160a01b03841660009081526067602090815260408083206001600160e01b0319871684529091529020805460ff1916600117905581156109cd576001600160a01b03841660009081526068602090815260408083208584529091529020805460ff191660011790555b50505050565b606654600090610100900460ff168015610a12575033600090815260676020908152604080832083356001600160e01b031916845290915290205460ff165b905033610a1d611b4b565b6001600160a01b03161480610a2f5750805b610a4b5760405162461bcd60e51b8152600401610649906136a9565b6001600160a01b0383166000908152606960205260409020548390610aaf5760405162461bcd60e51b815260206004820152601a60248201527910dbdb9d1c9858dd081a5cc81b9bdd081c9959da5cdd195c995960321b6044820152606401610649565b6001600160a01b0384166000908152606960209081526040808320548352606a909152902080548190610ae490600190613768565b81548110610b0257634e487b7160e01b600052603260045260246000fd5b9060005260206000200160009054906101000a90046001600160a01b0316818581548110610b4057634e487b7160e01b600052603260045260246000fd5b9060005260206000200160006101000a8154816001600160a01b0302191690836001600160a01b0316021790555080805480610b8c57634e487b7160e01b600052603160045260246000fd5b60008281526020808220830160001990810180546001600160a01b03191690559092019092556001600160a01b039690961681526069909552505060408320929092555050565b806000610bdf82612136565b6000838152606b60205260409020549091506001600160a01b031633811480610c1e57506000838152606c60205260409020546001600160a01b031633145b80610c4c57506001600160a01b0381166000908152606e6020908152604080832033845290915290205460ff165b80610c545750815b604051806040016040528060068152602001650c0c0ccc0c0d60d21b81525090610c915760405162461bcd60e51b815260040161064991906135db565b506000848152606b6020908152604091829020548251808401909352600683526518181998181960d11b918301919091528591906001600160a01b0316610ceb5760405162461bcd60e51b815260040161064991906135db565b506000858152606b6020908152604091829020548251808401909352600683526530303330303760d01b918301919091526001600160a01b03908116919089168214610d4a5760405162461bcd60e51b815260040161064991906135db565b5060408051808201909152600681526530303330303160d01b60208201526001600160a01b038816610d8f5760405162461bcd60e51b815260040161064991906135db565b50610d9a878761217b565b5050505050505050565b6000828152607a6020526040812054819081906001600160a01b0316610dcb576079610dda565b6000858152607a602052604090205b6040805180820190915290546001600160a01b038116808352600160a01b90910462ffffff166020830181905290945090915061271090610e1b9086613749565b610e259190613729565b9150509250929050565b606654600090610100900460ff168015610e6e575033600090815260676020908152604080832083356001600160e01b031916845290915290205460ff165b905033610e79611b4b565b6001600160a01b03161480610e8b5750805b610ea75760405162461bcd60e51b8152600401610649906136a9565b506066805461ff001981166101009182900460ff1615909102179055565b606654600090610100900460ff168015610f04575033600090815260676020908152604080832083356001600160e01b031916845290915290205460ff165b905033610f0f611b4b565b6001600160a01b03161480610f215750805b610f3d5760405162461bcd60e51b8152600401610649906136a9565b6001600160a01b03841660009081526067602090815260408083206001600160e01b0319871684529091529020805460ff1916905581156109cd576001600160a01b03841660009081526068602090815260408083208584529091529020805460ff1916600117905550505050565b6001600160a01b0382166000908152607760209081526040808320548151808301909252600682526530303530303760d01b928201929092529083106110055760405162461bcd60e51b815260040161064991906135db565b506001600160a01b038316600090815260776020526040902080548390811061103e57634e487b7160e01b600052603260045260246000fd5b9060005260206000200154905092915050565b606654600090610100900460ff168015611090575033600090815260676020908152604080832083356001600160e01b031916845290915290205460ff165b90503361109b611b4b565b6001600160a01b031614806110ad5750805b6110c95760405162461bcd60e51b8152600401610649906136a9565b6110d3878761230a565b6111138686868080601f01602080910402602001604051908101604052809392919081815260200183838082843760009201919091525061236a92505050565b6111538684848080601f0160208091040260200160405190810160405280939291908181526020018383808284376000920191909152506123e392505050565b6003600052606a6020526000805160206142f983398151915254158015906111c7575060036000908152606a6020526000805160206142f983398151915280543392906111b057634e487b7160e01b600052603260045260246000fd5b6000918252602090912001546001600160a01b0316145b156112295760405163b68c437960e01b8152339063b68c4379906111f6906000908b908b908390600401613542565b600060405180830381600087803b15801561121057600080fd5b505af1158015611224573d6000803e3d6000fd5b505050505b50505050505050565b606654600090610100900460ff168015611271575033600090815260676020908152604080832083356001600160e01b031916845290915290205460ff165b90503361127c611b4b565b6001600160a01b0316148061128e5750805b6112aa5760405162461bcd60e51b8152600401610649906136a9565b506066805460ff19811660ff90911615179055565b6112da8383836040518060200160405280600081525061245c565b505050565b8060006112eb82612136565b6000838152606b60205260409020549091506001600160a01b03163381148061132a57506000838152606c60205260409020546001600160a01b031633145b8061135857506001600160a01b0381166000908152606e6020908152604080832033845290915290205460ff165b806113605750815b604051806040016040528060068152602001650c0c0ccc0c0d60d21b8152509061139d5760405162461bcd60e51b815260040161064991906135db565b506113a78461271d565b6003600052606a6020526000805160206142f9833981519152541580159061141b575060036000908152606a6020526000805160206142f98339815191528054829061140357634e487b7160e01b600052603260045260246000fd5b6000918252602090912001546001600160a01b031614155b156109cd5760036000908152606a6020526000805160206142f9833981519152805490919061145a57634e487b7160e01b600052603260045260246000fd5b600091825260208220015460405163b68c437960e01b81526001600160a01b039091169163b68c4379916114979133918990600390600401613542565b600060405180830381600087803b1580156114b157600080fd5b505af1158015610d9a573d6000803e3d6000fd5b60755460408051808201909152600681526530303530303760d01b602082015260009183106115075760405162461bcd60e51b815260040161064991906135db565b506075828154811061152957634e487b7160e01b600052603260045260246000fd5b90600052602060002001549050919050565b6000818152606b6020908152604091829020548251808401909352600683526518181998181960d11b918301919091526001600160a01b0316908161066e5760405162461bcd60e51b815260040161064991906135db565b60408051808201909152600681526530303330303160d01b60208201526000906001600160a01b0383166115da5760405162461bcd60e51b815260040161064991906135db565b506115e482612869565b92915050565b606654600090610100900460ff168015611629575033600090815260676020908152604080832083356001600160e01b031916845290915290205460ff165b905033611634611b4b565b6001600160a01b031614806116465750805b6116625760405162461bcd60e51b8152600401610649906136a9565b61166c6000612884565b50565b606654600090610100900460ff1680156116ae575033600090815260676020908152604080832083356001600160e01b031916845290915290205460ff165b9050336116b9611b4b565b6001600160a01b031614806116cb5750805b6116e75760405162461bcd60e51b8152600401610649906136a9565b50607b80546001600160a01b0319166001600160a01b0392909216919091179055565b6000818152606a602090815260409182902080548351818402810184019094528084526060939283018282801561176a57602002820191906000526020600020905b81546001600160a01b0316815260019091019060200180831161174c575b50505050509050919050565b606654600090610100900460ff1680156117b5575033600090815260676020908152604080832083356001600160e01b031916845290915290205460ff165b9050336117c0611b4b565b6001600160a01b031614806117d25750805b6117ee5760405162461bcd60e51b8152600401610649906136a9565b7fc4761b87ec5248fbb0deaff2d6b1651b8dd04322c6597549eefe44d799d480ce6071836040516118209291906135ee565b60405180910390a181516112da906071906020850190612ee5565b600154610100900460ff166118565760015460ff161561185a565b303b155b6118bd5760405162461bcd60e51b815260206004820152602e60248201527f496e697469616c697a61626c653a20636f6e747261637420697320616c72656160448201526d191e481a5b9a5d1a585b1a5e995960921b6064820152608401610649565b600154610100900460ff161580156118df576001805461ffff19166101011790555b6118e76128d6565b60408051808201909152600f8082526e22b6b13632b6902b30bab63a102b1960891b602090920191825261191d91606f91612ee5565b5060408051808201909152600a80825269456d626c656d2e70726f60b01b602090920191825261194f91607091612ee5565b50611960635b5e139f60e01b612907565b61197063780e9d6360e01b612907565b6119806380ac58cd60e01b612907565b61199063152a902d60e11b612907565b611998612985565b6040516119a490612f69565b604051809103906000f0801580156119c0573d6000803e3d6000fd5b50607b80546001600160a01b0319166001600160a01b039290921691821790556040805163204a7f0760e21b81529051638129fc1c9160048082019260009290919082900301818387803b158015611a1757600080fd5b505af1158015611a2b573d6000803e3d6000fd5b5050607b5460405163f2fde38b60e01b81526001600160a01b03909116925063f2fde38b9150611a5f9033906004016134f1565b600060405180830381600087803b158015611a7957600080fd5b505af1158015611a8d573d6000803e3d6000fd5b50506066805460ff191660011790555050801561166c576001805461ff001916905550565b606654600090610100900460ff168015611af1575033600090815260676020908152604080832083356001600160e01b031916845290915290205460ff165b905033611afc611b4b565b6001600160a01b03161480611b0e5750805b611b2a5760405162461bcd60e51b8152600401610649906136a9565b611b36606f8686612f76565b50611b4360708484612f76565b505050505050565b6034546001600160a01b031690565b60606070805461056f9061377f565b306001600160a01b0316638da5cb5b6040518163ffffffff1660e01b815260040160206040518083038186803b158015611ba257600080fd5b505afa158015611bb6573d6000803e3d6000fd5b505050506040513d601f19601f82011682018060405250810190611bda9190613124565b6001600160a01b0316336001600160a01b031614611c265760405162461bcd60e51b81526020600482015260096024820152682737ba1027bbb732b960b91b6044820152606401610649565b612710811115611c755760405162461bcd60e51b815260206004820152601a60248201527908aa48664727062a4def2c2d8e8d2cae67440a8dede40d0d2ced60331b6044820152606401610649565b82611cc557604080518082019091526001600160a01b03831680825262ffffff8316602090920182905260798054600160a01b9093026001600160b81b0319909316909117919091179055505050565b6040805180820182526001600160a01b03938416815262ffffff92831660208083019182526000968752607a905291909420935184549151909216600160a01b026001600160b81b03199091169190921617179055565b6000818152606b6020908152604091829020548251808401909352600683526518181998181960d11b9183019190915260609183916001600160a01b0316611d775760405162461bcd60e51b815260040161064991906135db565b5060008381526073602052604090208054611d919061377f565b80601f0160208091040260200160405190810160405280929190818152602001828054611dbd9061377f565b8015611e0a5780601f10611ddf57610100808354040283529160200191611e0a565b820191906000526020600020905b815481529060010190602001808311611ded57829003601f168201915b5050505050915050919050565b336000818152606e602090815260408083206001600160a01b03871680855290835292819020805460ff191686151590811790915590519081529192917f17307eab39ab6107e8899845ad3d59bd9653f200f220920489ca2b5937696c31910160405180910390a35050565b611ec585858585858080601f01602080910402602001604051908101604052809392919081815260200183838082843760009201919091525061245c92505050565b5050505050565b60006115e482612869565b6000818152606b6020908152604091829020548251808401909352600683526518181998181960d11b9183019190915260609183916001600160a01b0316611f325760405162461bcd60e51b815260040161064991906135db565b5060008381526072602052604090208054611d919061377f565b6000828152606b6020908152604091829020548251808401909352600683526518181998181960d11b918301919091528391906001600160a01b0316611fa55760405162461bcd60e51b815260040161064991906135db565b50606654600090610100900460ff168015611fe5575033600090815260676020908152604080832083356001600160e01b031916845290915290205460ff165b905033611ff0611b4b565b6001600160a01b031614806120025750805b61201e5760405162461bcd60e51b8152600401610649906136a9565b60008481526072602090815260409091208451611ec592860190612ee5565b60606071805461056f9061377f565b606654600090610100900460ff16801561208b575033600090815260676020908152604080832083356001600160e01b031916845290915290205460ff165b905033612096611b4b565b6001600160a01b031614806120a85750805b6120c45760405162461bcd60e51b8152600401610649906136a9565b6001600160a01b0382166121295760405162461bcd60e51b815260206004820152602660248201527f4f776e61626c653a206e6577206f776e657220697320746865207a65726f206160448201526564647265737360d01b6064820152608401610649565b61213282612884565b5050565b606654600090610100900460ff1680156121535750612153612a0c565b80156115e4575050336000908152606860209081526040808320938352929052205460ff1690565b6000818152606b60205260409020546001600160a01b031661219c82612a50565b6121a68183612a8b565b6121b08383612c35565b6003600052606a6020526000805160206142f98339815191525415801590612224575060036000908152606a6020526000805160206142f98339815191528054829061220c57634e487b7160e01b600052603260045260246000fd5b6000918252602090912001546001600160a01b031614155b156122d65760036000908152606a6020526000805160206142f9833981519152805490919061226357634e487b7160e01b600052603260045260246000fd5b60009182526020909120015460405163b68c437960e01b81526001600160a01b039091169063b68c4379906122a390849087908790600190600401613542565b600060405180830381600087803b1580156122bd57600080fd5b505af11580156122d1573d6000803e3d6000fd5b505050505b81836001600160a01b0316826001600160a01b031660008051602061431983398151915260405160405180910390a4505050565b6123148282612cf8565b607580546001818101835560008390527f9a8d93986a7b9e6294572ea6736696119c195c1a9f5eae642d3c5fcd44e49dea90910183905590546123579190613768565b6000918252607660205260409091205550565b6000828152606b6020908152604091829020548251808401909352600683526518181998181960d11b918301919091528391906001600160a01b03166123c35760405162461bcd60e51b815260040161064991906135db565b50600083815260726020908152604090912083516109cd92850190612ee5565b6000828152606b6020908152604091829020548251808401909352600683526518181998181960d11b918301919091528391906001600160a01b031661243c5760405162461bcd60e51b815260040161064991906135db565b50600083815260736020908152604090912083516109cd92850190612ee5565b81600061246882612136565b6000838152606b60205260409020549091506001600160a01b0316338114806124a757506000838152606c60205260409020546001600160a01b031633145b806124d557506001600160a01b0381166000908152606e6020908152604080832033845290915290205460ff165b806124dd5750815b604051806040016040528060068152602001650c0c0ccc0c0d60d21b8152509061251a5760405162461bcd60e51b815260040161064991906135db565b506000858152606b6020908152604091829020548251808401909352600683526518181998181960d11b918301919091528691906001600160a01b03166125745760405162461bcd60e51b815260040161064991906135db565b506000868152606b6020908152604091829020548251808401909352600683526530303330303760d01b918301919091526001600160a01b0390811691908a1682146125d35760405162461bcd60e51b815260040161064991906135db565b5060408051808201909152600681526530303330303160d01b60208201526001600160a01b0389166126185760405162461bcd60e51b815260040161064991906135db565b50612623888861217b565b612635886001600160a01b0316612dc9565b1561271257604051630a85bd0160e11b81526000906001600160a01b038a169063150b7a029061266f9033908e908d908d90600401613505565b602060405180830381600087803b15801561268957600080fd5b505af115801561269d573d6000803e3d6000fd5b505050506040513d601f19601f820116820180604052508101906126c19190613357565b60408051808201909152600681526530303330303560d01b60208201529091506001600160e01b03198216630a85bd0160e11b146112245760405162461bcd60e51b815260040161064991906135db565b505050505050505050565b61272681612e05565b6000818152607260205260409020805461273f9061377f565b15905061275d57600081815260726020526040812061275d91612fea565b600081815260736020526040902080546127769061377f565b15905061279457600081815260736020526040812061279491612fea565b6000818152607660205260408120546075549091906127b590600190613768565b90506000607582815481106127da57634e487b7160e01b600052603260045260246000fd5b90600052602060002001549050806075848154811061280957634e487b7160e01b600052603260045260246000fd5b600091825260209091200155607580548061283457634e487b7160e01b600052603160045260246000fd5b600082815260208082208301600019908101839055909201909255918152607690915260408082209390935592835250812055565b6001600160a01b031660009081526077602052604090205490565b603480546001600160a01b038381166001600160a01b0319831681179093556040519116919082907f8be0079c531659141344cd1fd0a4f28419497f9722a3daafe3b4186f6b6457e090600090a35050565b600154610100900460ff166128fd5760405162461bcd60e51b8152600401610649906136de565b612905612eb5565b565b6001600160e01b031980821614156129605760405162461bcd60e51b815260206004820152601c60248201527b115490cc4d8d4e881a5b9d985b1a59081a5b9d195c999858d9481a5960221b6044820152606401610649565b6001600160e01b0319166000908152602081905260409020805460ff19166001179055565b6301ffc9a760e01b60009081526020527f67be87c3ff9960ca1e9cfac5cab2ff4747269cf9ed20c9b7306235ac35a491c55460ff16156129fc5760405162461bcd60e51b8152602060048201526012602482015271105b1c9958591e48149959da5cdd195c995960721b6044820152606401610649565b6129056301ffc9a760e01b612907565b606654600090610100900460ff168015612a4b575033600090815260676020908152604080832083356001600160e01b031916845290915290205460ff165b905090565b6000818152606c60205260409020546001600160a01b03161561166c576000908152606c6020526040902080546001600160a01b0319169055565b6000818152606b6020908152604091829020548251808401909352600683526530303330303760d01b918301919091526001600160a01b03848116911614612ae65760405162461bcd60e51b815260040161064991906135db565b506000818152606b6020908152604080832080546001600160a01b031916905560788252808320546001600160a01b03861684526077909252822054909190612b3190600190613768565b9050818114612be4576001600160a01b0384166000908152607760205260408120805483908110612b7257634e487b7160e01b600052603260045260246000fd5b906000526020600020015490508060776000876001600160a01b03166001600160a01b031681526020019081526020016000208481548110612bc457634e487b7160e01b600052603260045260246000fd5b600091825260208083209091019290925591825260789052604090208290555b6001600160a01b0384166000908152607760205260409020805480612c1957634e487b7160e01b600052603160045260246000fd5b6001900381819060005260206000200160009055905550505050565b6000818152606b6020908152604091829020548251808401909352600683526518181998181b60d11b918301919091526001600160a01b031615612c8c5760405162461bcd60e51b815260040161064991906135db565b506000818152606b6020908152604080832080546001600160a01b0319166001600160a01b038716908117909155808452607783529083208054600181810183558286529385200185905592529054612ce59190613768565b6000918252607860205260409091205550565b60408051808201909152600681526530303330303160d01b60208201526001600160a01b038316612d3c5760405162461bcd60e51b815260040161064991906135db565b506000818152606b6020908152604091829020548251808401909352600683526518181998181b60d11b918301919091526001600160a01b031615612d945760405162461bcd60e51b815260040161064991906135db565b50612d9f8282612c35565b60405181906001600160a01b03841690600090600080516020614319833981519152908290a45050565b6000813f7fc5d2460186f7233c927e7db2dcc703c0e500b653ca82273b7bfad8045d85a4708115801590612dfd5750808214155b949350505050565b6000818152606b6020908152604091829020548251808401909352600683526518181998181960d11b918301919091528291906001600160a01b0316612e5e5760405162461bcd60e51b815260040161064991906135db565b506000828152606b60205260409020546001600160a01b0316612e8083612a50565b612e8a8184612a8b565b60405183906000906001600160a01b03841690600080516020614319833981519152908390a4505050565b600154610100900460ff16612edc5760405162461bcd60e51b8152600401610649906136de565b61290533612884565b828054612ef19061377f565b90600052602060002090601f016020900481019282612f135760008555612f59565b82601f10612f2c57805160ff1916838001178555612f59565b82800160010185558215612f59579182015b82811115612f59578251825591602001919060010190612f3e565b50612f65929150613020565b5090565b610aed8061380c83390190565b828054612f829061377f565b90600052602060002090601f016020900481019282612fa45760008555612f59565b82601f10612fbd5782800160ff19823516178555612f59565b82800160010185558215612f59579182015b82811115612f59578235825591602001919060010190612fcf565b508054612ff69061377f565b6000825580601f10613006575050565b601f01602090049060005260206000209081019061166c91905b5b80821115612f655760008155600101613021565b60008083601f840112613046578182fd5b5081356001600160401b0381111561305c578182fd5b60208301915083602082850101111561307457600080fd5b9250929050565b600082601f83011261308b578081fd5b81356001600160401b03808211156130a5576130a56137ca565b604051601f8301601f19908116603f011681019082821181831017156130cd576130cd6137ca565b816040528381528660208588010111156130e5578485fd5b8360208701602083013792830160200193909352509392505050565b600060208284031215613112578081fd5b813561311d816137e0565b9392505050565b600060208284031215613135578081fd5b815161311d816137e0565b60008060408385031215613152578081fd5b823561315d816137e0565b9150602083013561316d816137e0565b809150509250929050565b60008060006060848603121561318c578081fd5b8335613197816137e0565b925060208401356131a7816137e0565b929592945050506040919091013590565b6000806000806000608086880312156131cf578081fd5b85356131da816137e0565b945060208601356131ea816137e0565b93506040860135925060608601356001600160401b0381111561320b578182fd5b61321788828901613035565b969995985093965092949392505050565b6000806040838503121561323a578182fd5b8235613245816137e0565b91506020830135801515811461316d578182fd5b60008060006060848603121561326d578283fd5b8335613278816137e0565b925060208401356131a7816137f5565b6000806040838503121561329a578182fd5b82356132a5816137e0565b946020939093013593505050565b600080600080600080608087890312156132cb578081fd5b86356132d6816137e0565b95506020870135945060408701356001600160401b03808211156132f8578283fd5b6133048a838b01613035565b9096509450606089013591508082111561331c578283fd5b5061332989828a01613035565b979a9699509497509295939492505050565b60006020828403121561334c578081fd5b813561311d816137f5565b600060208284031215613368578081fd5b815161311d816137f5565b60008060008060408587031215613388578384fd5b84356001600160401b038082111561339e578586fd5b6133aa88838901613035565b909650945060208701359150808211156133c2578384fd5b506133cf87828801613035565b95989497509550505050565b6000602082840312156133ec578081fd5b81356001600160401b03811115613401578182fd5b612dfd8482850161307b565b60006020828403121561341e578081fd5b5035919050565b600080600060608486031215613439578081fd5b8335925060208401356131a7816137e0565b6000806040838503121561345d578182fd5b8235915060208301356001600160401b03811115613479578182fd5b610e258582860161307b565b60008060408385031215613497578182fd5b50508035926020909101359150565b60008151808452815b818110156134cb576020818501810151868301820152016134af565b818111156134dc5782602083870101525b50601f01601f19169290920160200192915050565b6001600160a01b0391909116815260200190565b6001600160a01b0385811682528416602082015260408101839052608060608201819052600090613538908301846134a6565b9695505050505050565b6001600160a01b0385811682528416602082015260408101839052608081016004831061357f57634e487b7160e01b600052602160045260246000fd5b82606083015295945050505050565b6020808252825182820181905260009190848201906040850190845b818110156135cf5783516001600160a01b0316835292840192918401916001016135aa565b50909695505050505050565b60208152600061311d60208301846134a6565b60408152600080845482600182811c91508083168061360e57607f831692505b602080841082141561362e57634e487b7160e01b87526022600452602487fd5b604088018490526060880182801561364d576001811461365e57613688565b60ff19871682528282019750613688565b60008c815260209020895b8781101561368257815484820152908601908401613669565b83019850505b50508786038189015250505050506136a081856134a6565b95945050505050565b6020808252601b908201527a4e6f74206f776e6572206f722061626c6520746f2062797061737360281b604082015260600190565b6020808252602b908201527f496e697469616c697a61626c653a20636f6e7472616374206973206e6f74206960408201526a6e697469616c697a696e6760a81b606082015260800190565b60008261374457634e487b7160e01b81526012600452602481fd5b500490565b6000816000190483118215151615613763576137636137b4565b500290565b60008282101561377a5761377a6137b4565b500390565b600181811c9082168061379357607f821691505b6020821081141561066e57634e487b7160e01b600052602260045260246000fd5b634e487b7160e01b600052601160045260246000fd5b634e487b7160e01b600052604160045260246000fd5b6001600160a01b038116811461166c57600080fd5b6001600160e01b03198116811461166c57600080fdfe608060405234801561001057600080fd5b50610acd806100206000396000f3fe60806040526004361061006f5760003560e01c8063715018a6146101635780638129fc1c1461017a5780638da5cb5b1461018f578063932fe1d5146101c1578063a1a74aae146101e1578063bdd4d18d14610201578063d71ab4b714610223578063f2fde38b1461024357600080fd5b3661015e576065546100ac5760405162461bcd60e51b81526020600482015260016024820152603160f81b60448201526064015b60405180910390fd5b60005b60655481101561015b576000606582815481106100dc57634e487b7160e01b600052603260045260246000fd5b60009182526020918290206040805160608101825292909101546001600160a01b03811680845263ffffffff600160a01b83048116958501869052600160c01b90920490911691830182905291935061014892610139903461097f565b610143919061095f565b610263565b5080610153816109b5565b9150506100af565b50005b600080fd5b34801561016f57600080fd5b50610178610294565b005b34801561018657600080fd5b506101786102cf565b34801561019b57600080fd5b506101a4610390565b6040516001600160a01b0390911681526020015b60405180910390f35b3480156101cd57600080fd5b506101786101dc3660046107d5565b61039f565b3480156101ed57600080fd5b506101786101fc36600461085b565b61043c565b34801561020d57600080fd5b50610216610579565b6040516101b89190610873565b34801561022f57600080fd5b5061017861023e366004610844565b610600565b34801561024f57600080fd5b5061017861025e3660046107b2565b61066d565b600080600080600085875af190508061028f576040516312171d8360e31b815260040160405180910390fd5b505050565b3361029d610390565b6001600160a01b0316146102c35760405162461bcd60e51b81526004016100a3906108df565b6102cd6000610706565b565b600054610100900460ff166102ea5760005460ff16156102ee565b303b155b6103515760405162461bcd60e51b815260206004820152602e60248201527f496e697469616c697a61626c653a20636f6e747261637420697320616c72656160448201526d191e481a5b9a5d1a585b1a5e995960921b60648201526084016100a3565b600054610100900460ff16158015610373576000805461ffff19166101011790555b61037b610758565b801561038d576000805461ff00191690555b50565b6033546001600160a01b031690565b336103a8610390565b6001600160a01b0316146103ce5760405162461bcd60e51b81526004016100a3906108df565b60005b8181101561028f5760658383838181106103fb57634e487b7160e01b600052603260045260246000fd5b835460018101855560009485526020909420606090910292909201929190910190506104278282610a01565b50508080610434906109b5565b9150506103d1565b33610445610390565b6001600160a01b03161461046b5760405162461bcd60e51b81526004016100a3906108df565b6065805461047b9060019061099e565b8154811061049957634e487b7160e01b600052603260045260246000fd5b90600052602060002001606582815481106104c457634e487b7160e01b600052603260045260246000fd5b600091825260209091208254910180546001600160a01b039092166001600160a01b031983168117825583546001600160c01b031990931617600160a01b9283900463ffffffff90811690930217808255925463ffffffff60c01b19909316600160c01b93849004909216909202179055606580548061055457634e487b7160e01b600052603160045260246000fd5b600082815260209020810160001990810180546001600160e01b031916905501905550565b60606065805480602002602001604051908101604052809291908181526020016000905b828210156105f757600084815260209081902060408051606081018252918501546001600160a01b038116835263ffffffff600160a01b8204811684860152600160c01b909104169082015282526001909201910161059d565b50505050905090565b33610609610390565b6001600160a01b03161461062f5760405162461bcd60e51b81526004016100a3906108df565b6065805460018101825560009190915281907f8ff97419363ffd7000167f130ef7168fbea05faf9251824ca5043f113cc6a7c70161028f8282610a01565b33610676610390565b6001600160a01b03161461069c5760405162461bcd60e51b81526004016100a3906108df565b6001600160a01b0381166107015760405162461bcd60e51b815260206004820152602660248201527f4f776e61626c653a206e6577206f776e657220697320746865207a65726f206160448201526564647265737360d01b60648201526084016100a3565b61038d815b603380546001600160a01b038381166001600160a01b0319831681179093556040519116919082907f8be0079c531659141344cd1fd0a4f28419497f9722a3daafe3b4186f6b6457e090600090a35050565b600054610100900460ff1661077f5760405162461bcd60e51b81526004016100a390610914565b6102cd600054610100900460ff166107a95760405162461bcd60e51b81526004016100a390610914565b6102cd33610706565b6000602082840312156107c3578081fd5b81356107ce81610a82565b9392505050565b600080602083850312156107e7578081fd5b82356001600160401b03808211156107fd578283fd5b818501915085601f830112610810578283fd5b81358181111561081e578384fd5b866020606083028501011115610832578384fd5b60209290920196919550909350505050565b600060608284031215610855578081fd5b50919050565b60006020828403121561086c578081fd5b5035919050565b602080825282518282018190526000919060409081850190868401855b828110156108d257815180516001600160a01b031685528681015163ffffffff9081168887015290860151168585015260609093019290850190600101610890565b5091979650505050505050565b6020808252818101527f4f776e61626c653a2063616c6c6572206973206e6f7420746865206f776e6572604082015260600190565b6020808252602b908201527f496e697469616c697a61626c653a20636f6e7472616374206973206e6f74206960408201526a6e697469616c697a696e6760a81b606082015260800190565b60008261097a57634e487b7160e01b81526012600452602481fd5b500490565b6000816000190483118215151615610999576109996109d0565b500290565b6000828210156109b0576109b06109d0565b500390565b60006000198214156109c9576109c96109d0565b5060010190565b634e487b7160e01b600052601160045260246000fd5b6000813563ffffffff811681146109fb578182fd5b92915050565b8135610a0c81610a82565b81546001600160a01b031981166001600160a01b0392909216918217835563ffffffff60a01b610a3e602086016109e6565b60a01b16808360018060c01b031984161717845563ffffffff60c01b610a66604087016109e6565b60c01b168363ffffffff60e01b84161782171784555050505050565b6001600160a01b038116811461038d57600080fdfea2646970667358221220d57ad3d407a5dedbfd2d8a654e39fda62913e9c4f8262e90cbae7f427711ba2864736f6c63430008040033165f0fc496c6f74e1376579ffc36bcfc90ef4779c44b9232cf0d606db3cc69d1ddf252ad1be2c89b69c2b068fc378daa952ba7f163c4a11628f55a4df523b3efa26469706673582212200d1bce3d4e6837ef4084999a216ec3aed7b449c7a7714d1e6340a24ae2be89b364736f6c63430008040033",
  "linkReferences": {},
  "deployedLinkReferences": {}
}