{
  "_format": "hh-sol-artifact-1",
  "contractName": "ERC1155Upgradable",
  "sourceName": "contracts/ERC1155Upgradable.sol",
  "abi": [
    {
      "inputs": [],
      "stateMutability": "nonpayable",
      "type": "constructor"
    },
    {
      "anonymous": false,
      "inputs": [
        {
          "indexed": true,
          "internalType": "address",
          "name": "account",
          "type": "address"
        },
        {
          "indexed": true,
          "internalType": "address",
          "name": "operator",
          "type": "address"
        },
        {
          "indexed": false,
          "internalType": "bool",
          "name": "approved",
          "type": "bool"
        }
      ],
      "name": "ApprovalForAll",
      "type": "event"
    },
    {
      "anonymous": false,
      "inputs": [
        {
          "indexed": true,
          "internalType": "address",
          "name": "previousOwner",
          "type": "address"
        },
        {
          "indexed": true,
          "internalType": "address",
          "name": "newOwner",
          "type": "address"
        }
      ],
      "name": "OwnershipTransferred",
      "type": "event"
    },
    {
      "anonymous": false,
      "inputs": [
        {
          "indexed": true,
          "internalType": "address",
          "name": "operator",
          "type": "address"
        },
        {
          "indexed": true,
          "internalType": "address",
          "name": "from",
          "type": "address"
        },
        {
          "indexed": true,
          "internalType": "address",
          "name": "to",
          "type": "address"
        },
        {
          "indexed": false,
          "internalType": "uint256[]",
          "name": "ids",
          "type": "uint256[]"
        },
        {
          "indexed": false,
          "internalType": "uint256[]",
          "name": "values",
          "type": "uint256[]"
        }
      ],
      "name": "TransferBatch",
      "type": "event"
    },
    {
      "anonymous": false,
      "inputs": [
        {
          "indexed": true,
          "internalType": "address",
          "name": "operator",
          "type": "address"
        },
        {
          "indexed": true,
          "internalType": "address",
          "name": "from",
          "type": "address"
        },
        {
          "indexed": true,
          "internalType": "address",
          "name": "to",
          "type": "address"
        },
        {
          "indexed": false,
          "internalType": "uint256",
          "name": "id",
          "type": "uint256"
        },
        {
          "indexed": false,
          "internalType": "uint256",
          "name": "value",
          "type": "uint256"
        }
      ],
      "name": "TransferSingle",
      "type": "event"
    },
    {
      "anonymous": false,
      "inputs": [
        {
          "indexed": false,
          "internalType": "string",
          "name": "value",
          "type": "string"
        },
        {
          "indexed": true,
          "internalType": "uint256",
          "name": "id",
          "type": "uint256"
        }
      ],
      "name": "URI",
      "type": "event"
    },
    {
      "inputs": [
        {
          "internalType": "address",
          "name": "who",
          "type": "address"
        },
        {
          "internalType": "bytes4",
          "name": "functionSig",
          "type": "bytes4"
        },
        {
          "internalType": "uint256",
          "name": "id",
          "type": "uint256"
        }
      ],
      "name": "addBypassRule",
      "outputs": [],
      "stateMutability": "nonpayable",
      "type": "function"
    },
    {
      "inputs": [
        {
          "internalType": "address",
          "name": "account",
          "type": "address"
        },
        {
          "internalType": "uint256",
          "name": "id",
          "type": "uint256"
        }
      ],
      "name": "balanceOf",
      "outputs": [
        {
          "internalType": "uint256",
          "name": "",
          "type": "uint256"
        }
      ],
      "stateMutability": "view",
      "type": "function"
    },
    {
      "inputs": [
        {
          "internalType": "address[]",
          "name": "accounts",
          "type": "address[]"
        },
        {
          "internalType": "uint256[]",
          "name": "ids",
          "type": "uint256[]"
        }
      ],
      "name": "balanceOfBatch",
      "outputs": [
        {
          "internalType": "uint256[]",
          "name": "",
          "type": "uint256[]"
        }
      ],
      "stateMutability": "view",
      "type": "function"
    },
    {
      "inputs": [
        {
          "internalType": "address",
          "name": "_from",
          "type": "address"
        },
        {
          "internalType": "uint256",
          "name": "_tokenId",
          "type": "uint256"
        },
        {
          "internalType": "uint256",
          "name": "_amount",
          "type": "uint256"
        }
      ],
      "name": "burn",
      "outputs": [],
      "stateMutability": "nonpayable",
      "type": "function"
    },
    {
      "inputs": [
        {
          "internalType": "string",
          "name": "_name",
          "type": "string"
        },
        {
          "internalType": "string",
          "name": "_symbol",
          "type": "string"
        }
      ],
      "name": "changeName",
      "outputs": [],
      "stateMutability": "nonpayable",
      "type": "function"
    },
    {
      "inputs": [
        {
          "internalType": "uint256",
          "name": "_type",
          "type": "uint256"
        }
      ],
      "name": "getAllRegisteredContractsOfType",
      "outputs": [
        {
          "internalType": "address[]",
          "name": "",
          "type": "address[]"
        }
      ],
      "stateMutability": "view",
      "type": "function"
    },
    {
      "inputs": [
        {
          "internalType": "address",
          "name": "_owner",
          "type": "address"
        },
        {
          "internalType": "uint256",
          "name": "tokenId",
          "type": "uint256"
        }
      ],
      "name": "getFirstSerialByOwner",
      "outputs": [
        {
          "internalType": "uint256",
          "name": "",
          "type": "uint256"
        }
      ],
      "stateMutability": "view",
      "type": "function"
    },
    {
      "inputs": [
        {
          "internalType": "uint256",
          "name": "serialNumber",
          "type": "uint256"
        }
      ],
      "name": "getOwnerOfSerial",
      "outputs": [
        {
          "internalType": "address",
          "name": "",
          "type": "address"
        }
      ],
      "stateMutability": "view",
      "type": "function"
    },
    {
      "inputs": [
        {
          "internalType": "uint256",
          "name": "tokenId",
          "type": "uint256"
        },
        {
          "internalType": "uint256",
          "name": "index",
          "type": "uint256"
        }
      ],
      "name": "getSerial",
      "outputs": [
        {
          "internalType": "uint256",
          "name": "",
          "type": "uint256"
        }
      ],
      "stateMutability": "view",
      "type": "function"
    },
    {
      "inputs": [
        {
          "internalType": "uint256",
          "name": "serialNumber",
          "type": "uint256"
        }
      ],
      "name": "getTokenIdForSerialNumber",
      "outputs": [
        {
          "internalType": "uint256",
          "name": "",
          "type": "uint256"
        }
      ],
      "stateMutability": "view",
      "type": "function"
    },
    {
      "inputs": [],
      "name": "getTokenIds",
      "outputs": [
        {
          "internalType": "uint256[]",
          "name": "arr",
          "type": "uint256[]"
        }
      ],
      "stateMutability": "view",
      "type": "function"
    },
    {
      "inputs": [],
      "name": "initialize",
      "outputs": [],
      "stateMutability": "nonpayable",
      "type": "function"
    },
    {
      "inputs": [
        {
          "internalType": "address",
          "name": "account",
          "type": "address"
        },
        {
          "internalType": "address",
          "name": "operator",
          "type": "address"
        }
      ],
      "name": "isApprovedForAll",
      "outputs": [
        {
          "internalType": "bool",
          "name": "",
          "type": "bool"
        }
      ],
      "stateMutability": "view",
      "type": "function"
    },
    {
      "inputs": [],
      "name": "isClaimable",
      "outputs": [
        {
          "internalType": "bool",
          "name": "",
          "type": "bool"
        }
      ],
      "stateMutability": "view",
      "type": "function"
    },
    {
      "inputs": [],
      "name": "isOverloadSerial",
      "outputs": [
        {
          "internalType": "bool",
          "name": "",
          "type": "bool"
        }
      ],
      "stateMutability": "view",
      "type": "function"
    },
    {
      "inputs": [
        {
          "internalType": "address",
          "name": "_contract",
          "type": "address"
        },
        {
          "internalType": "uint256",
          "name": "_type",
          "type": "uint256"
        }
      ],
      "name": "isRegistered",
      "outputs": [
        {
          "internalType": "bool",
          "name": "",
          "type": "bool"
        }
      ],
      "stateMutability": "view",
      "type": "function"
    },
    {
      "inputs": [],
      "name": "isSerialized",
      "outputs": [
        {
          "internalType": "bool",
          "name": "",
          "type": "bool"
        }
      ],
      "stateMutability": "view",
      "type": "function"
    },
    {
      "inputs": [
        {
          "internalType": "address",
          "name": "_to",
          "type": "address"
        },
        {
          "internalType": "uint256",
          "name": "_tokenId",
          "type": "uint256"
        },
        {
          "internalType": "uint256",
          "name": "_amount",
          "type": "uint256"
        }
      ],
      "name": "mint",
      "outputs": [],
      "stateMutability": "nonpayable",
      "type": "function"
    },
    {
      "inputs": [
        {
          "internalType": "address",
          "name": "to",
          "type": "address"
        },
        {
          "internalType": "uint256[]",
          "name": "ids",
          "type": "uint256[]"
        },
        {
          "internalType": "uint256[]",
          "name": "amounts",
          "type": "uint256[]"
        },
        {
          "internalType": "bytes[]",
          "name": "serialNumbers",
          "type": "bytes[]"
        }
      ],
      "name": "mintBatch",
      "outputs": [],
      "stateMutability": "nonpayable",
      "type": "function"
    },
    {
      "inputs": [
        {
          "internalType": "address",
          "name": "_to",
          "type": "address"
        },
        {
          "internalType": "uint256",
          "name": "_tokenId",
          "type": "uint256"
        },
        {
          "internalType": "uint256",
          "name": "_amount",
          "type": "uint256"
        },
        {
          "internalType": "bytes",
          "name": "serialNumber",
          "type": "bytes"
        }
      ],
      "name": "mintWithSerial",
      "outputs": [],
      "stateMutability": "nonpayable",
      "type": "function"
    },
    {
      "inputs": [],
      "name": "name",
      "outputs": [
        {
          "internalType": "string",
          "name": "",
          "type": "string"
        }
      ],
      "stateMutability": "view",
      "type": "function"
    },
    {
      "inputs": [],
      "name": "owner",
      "outputs": [
        {
          "internalType": "address",
          "name": "",
          "type": "address"
        }
      ],
      "stateMutability": "view",
      "type": "function"
    },
    {
      "inputs": [
        {
          "internalType": "address",
          "name": "",
          "type": "address"
        }
      ],
      "name": "ownerSerialCount",
      "outputs": [
        {
          "internalType": "uint256",
          "name": "",
          "type": "uint256"
        }
      ],
      "stateMutability": "view",
      "type": "function"
    },
    {
      "inputs": [
        {
          "internalType": "address",
          "name": "_contract",
          "type": "address"
        },
        {
          "internalType": "uint256",
          "name": "_type",
          "type": "uint256"
        }
      ],
      "name": "registerContract",
      "outputs": [],
      "stateMutability": "nonpayable",
      "type": "function"
    },
    {
      "inputs": [
        {
          "internalType": "address",
          "name": "who",
          "type": "address"
        },
        {
          "internalType": "bytes4",
          "name": "functionSig",
          "type": "bytes4"
        },
        {
          "internalType": "uint256",
          "name": "id",
          "type": "uint256"
        }
      ],
      "name": "removeBypassRule",
      "outputs": [],
      "stateMutability": "nonpayable",
      "type": "function"
    },
    {
      "inputs": [],
      "name": "renounceOwnership",
      "outputs": [],
      "stateMutability": "nonpayable",
      "type": "function"
    },
    {
      "inputs": [
        {
          "internalType": "uint256",
          "name": "tokenId",
          "type": "uint256"
        },
        {
          "internalType": "uint256",
          "name": "value",
          "type": "uint256"
        }
      ],
      "name": "royaltyInfo",
      "outputs": [
        {
          "internalType": "address",
          "name": "receiver",
          "type": "address"
        },
        {
          "internalType": "uint256",
          "name": "royaltyAmount",
          "type": "uint256"
        }
      ],
      "stateMutability": "view",
      "type": "function"
    },
    {
      "inputs": [
        {
          "internalType": "address",
          "name": "from",
          "type": "address"
        },
        {
          "internalType": "address",
          "name": "to",
          "type": "address"
        },
        {
          "internalType": "uint256[]",
          "name": "ids",
          "type": "uint256[]"
        },
        {
          "internalType": "uint256[]",
          "name": "amounts",
          "type": "uint256[]"
        },
        {
          "internalType": "bytes",
          "name": "data",
          "type": "bytes"
        }
      ],
      "name": "safeBatchTransferFrom",
      "outputs": [],
      "stateMutability": "nonpayable",
      "type": "function"
    },
    {
      "inputs": [
        {
          "internalType": "address",
          "name": "from",
          "type": "address"
        },
        {
          "internalType": "address",
          "name": "to",
          "type": "address"
        },
        {
          "internalType": "uint256",
          "name": "id",
          "type": "uint256"
        },
        {
          "internalType": "uint256",
          "name": "amount",
          "type": "uint256"
        },
        {
          "internalType": "bytes",
          "name": "",
          "type": "bytes"
        }
      ],
      "name": "safeTransferFrom",
      "outputs": [],
      "stateMutability": "nonpayable",
      "type": "function"
    },
    {
      "inputs": [
        {
          "internalType": "address",
          "name": "operator",
          "type": "address"
        },
        {
          "internalType": "bool",
          "name": "approved",
          "type": "bool"
        }
      ],
      "name": "setApprovalForAll",
      "outputs": [],
      "stateMutability": "nonpayable",
      "type": "function"
    },
    {
      "inputs": [
        {
          "internalType": "uint256",
          "name": "tokenId",
          "type": "uint256"
        },
        {
          "internalType": "address",
          "name": "recipient",
          "type": "address"
        },
        {
          "internalType": "uint256",
          "name": "value",
          "type": "uint256"
        }
      ],
      "name": "setTokenRoyalty",
      "outputs": [],
      "stateMutability": "nonpayable",
      "type": "function"
    },
    {
      "inputs": [
        {
          "internalType": "string",
          "name": "newuri",
          "type": "string"
        }
      ],
      "name": "setURI",
      "outputs": [],
      "stateMutability": "nonpayable",
      "type": "function"
    },
    {
      "inputs": [],
      "name": "streamAddress",
      "outputs": [
        {
          "internalType": "address payable",
          "name": "",
          "type": "address"
        }
      ],
      "stateMutability": "view",
      "type": "function"
    },
    {
      "inputs": [
        {
          "internalType": "bytes4",
          "name": "interfaceId",
          "type": "bytes4"
        }
      ],
      "name": "supportsInterface",
      "outputs": [
        {
          "internalType": "bool",
          "name": "",
          "type": "bool"
        }
      ],
      "stateMutability": "view",
      "type": "function"
    },
    {
      "inputs": [],
      "name": "symbol",
      "outputs": [
        {
          "internalType": "string",
          "name": "",
          "type": "string"
        }
      ],
      "stateMutability": "view",
      "type": "function"
    },
    {
      "inputs": [],
      "name": "toggleBypassability",
      "outputs": [],
      "stateMutability": "nonpayable",
      "type": "function"
    },
    {
      "inputs": [],
      "name": "toggleClaimable",
      "outputs": [],
      "stateMutability": "nonpayable",
      "type": "function"
    },
    {
      "inputs": [],
      "name": "toggleOverloadSerial",
      "outputs": [],
      "stateMutability": "nonpayable",
      "type": "function"
    },
    {
      "inputs": [],
      "name": "toggleSerialization",
      "outputs": [],
      "stateMutability": "nonpayable",
      "type": "function"
    },
    {
      "inputs": [
        {
          "internalType": "address",
          "name": "newOwner",
          "type": "address"
        }
      ],
      "name": "transferOwnership",
      "outputs": [],
      "stateMutability": "nonpayable",
      "type": "function"
    },
    {
      "inputs": [
        {
          "internalType": "address",
          "name": "_contract",
          "type": "address"
        },
        {
          "internalType": "uint256",
          "name": "index",
          "type": "uint256"
        }
      ],
      "name": "unregisterContract",
      "outputs": [],
      "stateMutability": "nonpayable",
      "type": "function"
    },
    {
      "inputs": [
        {
          "internalType": "uint256",
          "name": "_tokenId",
          "type": "uint256"
        }
      ],
      "name": "uri",
      "outputs": [
        {
          "internalType": "string",
          "name": "",
          "type": "string"
        }
      ],
      "stateMutability": "view",
      "type": "function"
    },
    {
      "inputs": [],
      "name": "version",
      "outputs": [
        {
          "internalType": "uint256",
          "name": "",
          "type": "uint256"
        }
      ],
      "stateMutability": "pure",
      "type": "function"
    }
  ],
  "bytecode": "0x608060405234801561001057600080fd5b50614b29806100206000396000f3fe608060405234801561001057600080fd5b50600436106101f85760003560e01c8062fdd58e146101fd57806301ffc9a71461022357806302fe53051461026057806306fdde03146102755780630a033a2b1461028a5780630e89341c14610292578063152f0eb5146102a5578063156e29f6146102b85780631986166f146102cb5780631beab0f6146102de5780632a55205a146102f15780632adbc37d146103235780632cf1dacb1461032b5780632eb2c2d61461033e57806330477d361461035157806340897bbe146103715780634e1273f41461037957806354fd4d501461039957806367f718a9146103a057806370366402146103a8578063715018a6146103bb57806374478bb3146103c35780637b74297d146103d05780638129fc1c146103f057806386575e40146103f85780638bcef78e1461040b5780638cc780de1461041e5780638da5cb5b146104315780638edfc8681461043957806395d89b411461045957806395db5a64146104615780639713c807146104725780639a7f1f7d14610485578063a0f174f6146104a5578063a22cb465146104b0578063a8f1602c146104c3578063af7a52e3146104f0578063b09a7b7414610503578063bbe215f31461050b578063e985e9c514610534578063f242432a14610570578063f2fde38b14610583578063f5298aca14610596575b600080fd5b61021061020b3660046136a5565b6105a9565b6040519081526020015b60405180910390f35b6102506102313660046138ae565b6001600160e01b03191660009081526020819052604090205460ff1690565b604051901515815260200161021a565b61027361026e366004613930565b610645565b005b61027d6106d5565b60405161021a9190613bf1565b610273610763565b61027d6102a0366004613975565b610847565b6102736102b33660046136a5565b61087b565b6102736102c63660046136d0565b61094d565b6102736102d9366004613668565b6109fe565b6102736102ec3660046136a5565b610ae9565b6103046102ff3660046139dc565b610ce9565b604080516001600160a01b03909316835260208301919091520161021a565b610273610d74565b610273610339366004613668565b610e0a565b61027361034c36600461341d565b610ef1565b607354610364906001600160a01b031681565b60405161021a9190613b0c565b61027361108e565b61038c610387366004613764565b61111b565b60405161021a9190613bb9565b6001610210565b61038c61134d565b6102736103b636600461352c565b6113a5565b610273611429565b6066546102509060ff1681565b6103e36103de366004613975565b6114ae565b60405161021a9190613b6c565b61027361151a565b6102736104063660046138c8565b611757565b610273610419366004613704565b6117f0565b61021061042c3660046136a5565b611874565b610364611913565b6102106104473660046133ad565b60706020526000908152604090205481565b61027d611922565b606b5462010000900460ff16610250565b6102736104803660046139a5565b61192f565b610210610493366004613975565b6000908152606e602052604090205490565b606b5460ff16610250565b6102736104be366004613637565b611ae2565b6102506104d13660046136a5565b6001600160a01b03919091166000908152606960205260409020541490565b6102106104fe3660046139dc565b611bb9565b610273611c14565b610364610519366004613975565b6000908152606f60205260409020546001600160a01b031690565b6102506105423660046133e5565b6001600160a01b03918216600090815260756020908152604080832093909416825291909152205460ff1690565b61027361057e3660046134c6565b611cac565b6102736105913660046133ad565b611ffa565b6102736105a43660046136d0565b6120e4565b60006001600160a01b03831661061a5760405162461bcd60e51b815260206004820152602b60248201527f455243313135353a2062616c616e636520717565727920666f7220746865207a60448201526a65726f206164647265737360a81b60648201526084015b60405180910390fd5b5060008181526074602090815260408083206001600160a01b03861684529091529020545b92915050565b606654600090610100900460ff168015610684575033600090815260676020908152604080832083356001600160e01b031916845290915290205460ff165b90503361068f611913565b6001600160a01b031614806106a15750805b6106bd5760405162461bcd60e51b815260040161061190613c69565b81516106d090607990602085019061314b565b505050565b607780546106e290613e6a565b80601f016020809104026020016040519081016040528092919081815260200182805461070e90613e6a565b801561075b5780601f106107305761010080835404028352916020019161075b565b820191906000526020600020905b81548152906001019060200180831161073e57829003601f168201915b505050505081565b606654600090610100900460ff1680156107a2575033600090815260676020908152604080832083356001600160e01b031916845290915290205460ff165b9050336107ad611913565b6001600160a01b031614806107bf5750805b6107db5760405162461bcd60e51b815260040161061190613c69565b606b54610100900460ff16156108325760405162461bcd60e51b815260206004820152601c60248201527b416c7265616479206861732073657269616c697a6564206974656d7360201b6044820152606401610611565b50606b805460ff19811660ff90911615179055565b606060796108548361214e565b604051602001610865929190613a6f565b6040516020818303038152906040529050919050565b336000818152606960205260409020541515806108a757503361089c611913565b6001600160a01b0316145b6108ff5760405162461bcd60e51b8152602060048201526024808201527f436f6e7472616374206973206e6f742072656769737465726564206e6f72204f6044820152633bb732b960e11b6064820152608401610611565b506001600160a01b039091166000818152606960209081526040808320859055938252606a8152928120805460018101825590825292902090910180546001600160a01b0319169091179055565b606654600090610100900460ff16801561098c575033600090815260676020908152604080832083356001600160e01b031916845290915290205460ff165b905033610997611913565b6001600160a01b031614806109a95750805b6109c55760405162461bcd60e51b815260040161061190613c69565b6000806040516020016109da91815260200190565b60405160208183030381529060405290506109f7858585846117f0565b5050505050565b606654600090610100900460ff168015610a3d575033600090815260676020908152604080832083356001600160e01b031916845290915290205460ff165b905033610a48611913565b6001600160a01b03161480610a5a5750805b610a765760405162461bcd60e51b815260040161061190613c69565b6001600160a01b03841660009081526067602090815260408083206001600160e01b0319871684529091529020805460ff191660011790558115610ae3576001600160a01b03841660009081526068602090815260408083208584529091529020805460ff191660011790555b50505050565b606654600090610100900460ff168015610b28575033600090815260676020908152604080832083356001600160e01b031916845290915290205460ff165b905033610b33611913565b6001600160a01b03161480610b455750805b610b615760405162461bcd60e51b815260040161061190613c69565b6001600160a01b0383166000908152606960205260409020548390610bc55760405162461bcd60e51b815260206004820152601a60248201527910dbdb9d1c9858dd081a5cc81b9bdd081c9959da5cdd195c995960321b6044820152606401610611565b6001600160a01b0384166000908152606960209081526040808320548352606a909152902080548190610bfa90600190613e10565b81548110610c1857634e487b7160e01b600052603260045260246000fd5b9060005260206000200160009054906101000a90046001600160a01b0316818581548110610c5657634e487b7160e01b600052603260045260246000fd5b9060005260206000200160006101000a8154816001600160a01b0302191690836001600160a01b0316021790555080805480610ca257634e487b7160e01b600052603160045260246000fd5b60008281526020808220830160001990810180546001600160a01b03191690559092019092556001600160a01b039690961681526069909552505060408320929092555050565b600082815260726020526040812054819081906001600160a01b0316610d10576071610d1f565b60008581526072602052604090205b6040805180820190915290546001600160a01b038116808352600160a01b90910462ffffff166020830181905290945090915061271090610d609086613df1565b610d6a9190613ddd565b9150509250929050565b606654600090610100900460ff168015610db3575033600090815260676020908152604080832083356001600160e01b031916845290915290205460ff165b905033610dbe611913565b6001600160a01b03161480610dd05750805b610dec5760405162461bcd60e51b815260040161061190613c69565b506066805461ff001981166101009182900460ff1615909102179055565b606654600090610100900460ff168015610e49575033600090815260676020908152604080832083356001600160e01b031916845290915290205460ff165b905033610e54611913565b6001600160a01b03161480610e665750805b610e825760405162461bcd60e51b815260040161061190613c69565b6001600160a01b03841660009081526067602090815260408083206001600160e01b0319871684529091529020805460ff191690558115610ae3576001600160a01b03841660009081526068602090815260408083208584529091529020805460ff1916600117905550505050565b8151835114610f125760405162461bcd60e51b815260040161061190613ce9565b6001600160a01b038416610f385760405162461bcd60e51b815260040161061190613c24565b6001600160a01b038516331480610f545750610f548533610542565b610fbb5760405162461bcd60e51b815260206004820152603260248201527f455243313135353a207472616e736665722063616c6c6572206973206e6f74206044820152711bdddb995c881b9bdc88185c1c1c9bdd995960721b6064820152608401610611565b3360005b8451811015611040576000858281518110610fea57634e487b7160e01b600052603260045260246000fd5b60200260200101519050600085838151811061101657634e487b7160e01b600052603260045260246000fd5b6020026020010151905061102d8989848489611cac565b50508061103990613ea5565b9050610fbf565b50846001600160a01b0316866001600160a01b0316826001600160a01b0316600080516020614a19833981519152878760405161107e929190613bcc565b60405180910390a4505050505050565b606654600090610100900460ff1680156110cd575033600090815260676020908152604080832083356001600160e01b031916845290915290205460ff165b9050336110d8611913565b6001600160a01b031614806110ea5750805b6111065760405162461bcd60e51b815260040161061190613c69565b506066805460ff19811660ff90911615179055565b606081518351146111805760405162461bcd60e51b815260206004820152602960248201527f455243313135353a206163636f756e747320616e6420696473206c656e677468604482015268040dad2e6dac2e8c6d60bb1b6064820152608401610611565b600083516001600160401b038111156111a957634e487b7160e01b600052604160045260246000fd5b6040519080825280602002602001820160405280156111d2578160200160208202803683370190505b50905060005b84518110156113455760006001600160a01b031685828151811061120c57634e487b7160e01b600052603260045260246000fd5b60200260200101516001600160a01b031614156112855760405162461bcd60e51b815260206004820152603160248201527f455243313135353a2062617463682062616c616e636520717565727920666f7260448201527020746865207a65726f206164647265737360781b6064820152608401610611565b607460008583815181106112a957634e487b7160e01b600052603260045260246000fd5b6020026020010151815260200190815260200160002060008683815181106112e157634e487b7160e01b600052603260045260246000fd5b60200260200101516001600160a01b03166001600160a01b031681526020019081526020016000205482828151811061132a57634e487b7160e01b600052603260045260246000fd5b602090810291909101015261133e81613ea5565b90506111d8565b509392505050565b6060607680548060200260200160405190810160405280929190818152602001828054801561139b57602002820191906000526020600020905b815481526020019060010190808311611387575b5050505050905090565b606654600090610100900460ff1680156113e4575033600090815260676020908152604080832083356001600160e01b031916845290915290205460ff165b9050336113ef611913565b6001600160a01b031614806114015750805b61141d5760405162461bcd60e51b815260040161061190613c69565b6109f78585858561226f565b606654600090610100900460ff168015611468575033600090815260676020908152604080832083356001600160e01b031916845290915290205460ff165b905033611473611913565b6001600160a01b031614806114855750805b6114a15760405162461bcd60e51b815260040161061190613c69565b6114ab600061243e565b50565b6000818152606a602090815260409182902080548351818402810184019094528084526060939283018282801561150e57602002820191906000526020600020905b81546001600160a01b031681526001909101906020018083116114f0575b50505050509050919050565b600154610100900460ff166115355760015460ff1615611539565b303b155b61159c5760405162461bcd60e51b815260206004820152602e60248201527f496e697469616c697a61626c653a20636f6e747261637420697320616c72656160448201526d191e481a5b9a5d1a585b1a5e995960921b6064820152608401610611565b600154610100900460ff161580156115be576001805461ffff19166101011790555b6115c6612490565b6115d6636cdb3d1360e11b6124c1565b6115e66303a24d0760e21b6124c1565b6115ee61253f565b6115fe63152a902d60e11b6124c1565b6040518060600160405280602d8152602001614a9d602d9139805161162b9160799160209091019061314b565b50606b805462ff00ff191662010001179055604051611649906131cf565b604051809103906000f080158015611665573d6000803e3d6000fd5b50607380546001600160a01b0319166001600160a01b039290921691821790556040805163204a7f0760e21b81529051638129fc1c9160048082019260009290919082900301818387803b1580156116bc57600080fd5b505af11580156116d0573d6000803e3d6000fd5b505060735460405163f2fde38b60e01b81526001600160a01b03909116925063f2fde38b9150611704903390600401613b0c565b600060405180830381600087803b15801561171e57600080fd5b505af1158015611732573d6000803e3d6000fd5b50506066805460ff19166001179055505080156114ab576001805461ff001916905550565b606654600090610100900460ff168015611796575033600090815260676020908152604080832083356001600160e01b031916845290915290205460ff165b9050336117a1611913565b6001600160a01b031614806117b35750805b6117cf5760405162461bcd60e51b815260040161061190613c69565b6117db607786866131dc565b506117e8607884846131dc565b505050505050565b606654600090610100900460ff16801561182f575033600090815260676020908152604080832083356001600160e01b031916845290915290205460ff165b90503361183a611913565b6001600160a01b0316148061184c5750805b6118685760405162461bcd60e51b815260040161061190613c69565b6109f7858585856125c6565b6000805b6000838152606d6020526040902054811015611909576000838152606d602052604081208054839081106118bc57634e487b7160e01b600052603260045260246000fd5b6000918252602080832090910154808352606f9091526040909120549091506001600160a01b0390811690861614156118f857915061063f9050565b5061190281613ea5565b9050611878565b5060009392505050565b6034546001600160a01b031690565b607880546106e290613e6a565b306001600160a01b0316638da5cb5b6040518163ffffffff1660e01b815260040160206040518083038186803b15801561196857600080fd5b505afa15801561197c573d6000803e3d6000fd5b505050506040513d601f19601f820116820180604052508101906119a091906133c9565b6001600160a01b0316336001600160a01b0316146119ec5760405162461bcd60e51b81526020600482015260096024820152682737ba1027bbb732b960b91b6044820152606401610611565b612710811115611a3b5760405162461bcd60e51b815260206004820152601a60248201527908aa48664727062a4def2c2d8e8d2cae67440a8dede40d0d2ced60331b6044820152606401610611565b82611a8b57604080518082019091526001600160a01b03831680825262ffffff8316602090920182905260718054600160a01b9093026001600160b81b0319909316909117919091179055505050565b6040805180820182526001600160a01b03938416815262ffffff928316602080830191825260009687526072905291909420935184549151909216600160a01b026001600160b81b03199091169190921617179055565b336001600160a01b0383161415611b4d5760405162461bcd60e51b815260206004820152602960248201527f455243313135353a2073657474696e6720617070726f76616c20737461747573604482015268103337b91039b2b63360b91b6064820152608401610611565b3360008181526075602090815260408083206001600160a01b03871680855290835292819020805460ff191686151590811790915590519081529192917f17307eab39ab6107e8899845ad3d59bd9653f200f220920489ca2b5937696c31910160405180910390a35050565b6000828152606d6020526040812054611bd45750600061063f565b6000838152606d60205260409020805483908110611c0257634e487b7160e01b600052603260045260246000fd5b9060005260206000200154905061063f565b606654600090610100900460ff168015611c53575033600090815260676020908152604080832083356001600160e01b031916845290915290205460ff165b905033611c5e611913565b6001600160a01b03161480611c705750805b611c8c5760405162461bcd60e51b815260040161061190613c69565b50606b805462ff0000198116620100009182900460ff1615909102179055565b6000611cb7846128d1565b90506001600160a01b038516611cdf5760405162461bcd60e51b815260040161061190613c24565b6001600160a01b038616331480611cfb5750611cfb8633610542565b80611d035750805b611d6e5760405162461bcd60e51b815260206004820152603660248201527f455243313135353a2063616c6c6572206973206e6f74206f776e6572206e6f726044820152751030b8383937bb32b2103737b910313cb830b9b9b2b960511b6064820152608401610611565b6000339050611dba846040518060600160405280602a8152602001614aca602a913960008881526074602090815260408083206001600160a01b038e1684529091529020549190612916565b60008681526074602090815260408083206001600160a01b038c81168552925280832093909355881681522054611df19085612950565b60008681526074602090815260408083206001600160a01b038b168452909152902055606b5460ff1615611e5e5760005b84811015611e5c576000611e368988611874565b90508015611e4957611e49818a8a6129b4565b5080611e5481613ea5565b915050611e22565b505b856001600160a01b0316876001600160a01b0316826001600160a01b0316600080516020614a398339815191528888604051611ea4929190918252602082015260400190565b60405180910390a46003600052606a602052600080516020614a7d8339815191525415801590611f20575060036000908152606a602052600080516020614a7d83398151915280548290611f0857634e487b7160e01b600052603260045260246000fd5b6000918252602090912001546001600160a01b031614155b15611ff15760005b84811015611fef5760036000908152606a602052600080516020614a7d8339815191528054909190611f6a57634e487b7160e01b600052603260045260246000fd5b60009182526020909120015460405163b68c437960e01b81526001600160a01b039091169063b68c437990611faa908b908b908b90600190600401613b20565b600060405180830381600087803b158015611fc457600080fd5b505af1158015611fd8573d6000803e3d6000fd5b505050508080611fe790613ea5565b915050611f28565b505b50505050505050565b606654600090610100900460ff168015612039575033600090815260676020908152604080832083356001600160e01b031916845290915290205460ff165b905033612044611913565b6001600160a01b031614806120565750805b6120725760405162461bcd60e51b815260040161061190613c69565b6001600160a01b0382166120d75760405162461bcd60e51b815260206004820152602660248201527f4f776e61626c653a206e6577206f776e657220697320746865207a65726f206160448201526564647265737360d01b6064820152608401610611565b6120e08261243e565b5050565b6001600160a01b03831633148061210057506121008333610542565b6121435760405162461bcd60e51b81526020600482015260146024820152732737ba1020b8383937bb32b2103a3790313ab93760611b6044820152606401610611565b6106d0838383612a9c565b6060816121725750506040805180820190915260018152600360fc1b602082015290565b8160005b811561219c578061218681613ea5565b91506121959050600a83613ddd565b9150612176565b6000816001600160401b038111156121c457634e487b7160e01b600052604160045260246000fd5b6040519080825280601f01601f1916602001820160405280156121ee576020820181803683370190505b5090505b841561226757612203600183613e10565b9150612210600a86613ec0565b61221b906030613dc5565b60f81b81838151811061223e57634e487b7160e01b600052603260045260246000fd5b60200101906001600160f81b031916908160001a905350612260600a86613ddd565b94506121f2565b949350505050565b6001600160a01b0384166122955760405162461bcd60e51b815260040161061190613d31565b81518351146122b65760405162461bcd60e51b815260040161061190613ce9565b604080516020810190915260009081905233905b84518110156123f057600060018583815181106122f757634e487b7160e01b600052603260045260246000fd5b6020026020010151116123315783828151811061232457634e487b7160e01b600052603260045260246000fd5b6020026020010151612381565b61236184838151811061235457634e487b7160e01b600052603260045260246000fd5b6020026020010151612d28565b6040516020016123719190613bb9565b6040516020818303038152906040525b90506123dd878784815181106123a757634e487b7160e01b600052603260045260246000fd5b60200260200101518785815181106123cf57634e487b7160e01b600052603260045260246000fd5b6020026020010151846125c6565b50806123e881613ea5565b9150506122ca565b50846001600160a01b031660006001600160a01b0316826001600160a01b0316600080516020614a19833981519152878760405161242f929190613bcc565b60405180910390a45050505050565b603480546001600160a01b038381166001600160a01b0319831681179093556040519116919082907f8be0079c531659141344cd1fd0a4f28419497f9722a3daafe3b4186f6b6457e090600090a35050565b600154610100900460ff166124b75760405162461bcd60e51b815260040161061190613c9e565b6124bf612d3e565b565b6001600160e01b0319808216141561251a5760405162461bcd60e51b815260206004820152601c60248201527b115490cc4d8d4e881a5b9d985b1a59081a5b9d195c999858d9481a5960221b6044820152606401610611565b6001600160e01b0319166000908152602081905260409020805460ff19166001179055565b6301ffc9a760e01b60009081526020527f67be87c3ff9960ca1e9cfac5cab2ff4747269cf9ed20c9b7306235ac35a491c55460ff16156125b65760405162461bcd60e51b8152602060048201526012602482015271105b1c9958591e48149959da5cdd195c995960721b6044820152606401610611565b6124bf6301ffc9a760e01b6124c1565b6001600160a01b0384166125ec5760405162461bcd60e51b815260040161061190613d31565b60008381526074602090815260408083206001600160a01b0388168452909152902054339061261b9084612950565b60008581526074602090815260408083206001600160a01b038a1684529091528120919091556076805460018101825591527fb5732705f5241370a28908c2fe1303cb223f03b90d857fd0573f003f79fefed401849055606b5460ff16156127a55760005b838110156127a357606b5462010000900460ff1615612787576126a4836000612d6e565b6126ed5760405162461bcd60e51b815260206004820152601a60248201527926bab9ba10383937bb34b2329039b2b934b0b610373ab6b132b960311b6044820152606401610611565b6000600185116127245761271f8460405160200161270b9190613a53565b604051602081830303815290604052612dcc565b612774565b61274c846040516020016127389190613a53565b604051602081830303815290604052612d28565b828151811061276b57634e487b7160e01b600052603260045260246000fd5b60200260200101515b9050612781818888612de2565b50612791565b6127918587612e65565b8061279b81613ea5565b915050612680565b505b6003600052606a602052600080516020614a7d8339815191525415801590612819575060036000908152606a602052600080516020614a7d833981519152805433929061280257634e487b7160e01b600052603260045260246000fd5b6000918252602090912001546001600160a01b0316145b1561289a5760005b838110156128985760405163b68c437960e01b8152339063b68c437990612853906000908a908a908390600401613b20565b600060405180830381600087803b15801561286d57600080fd5b505af1158015612881573d6000803e3d6000fd5b50505050808061289090613ea5565b915050612821565b505b60408051858152602081018590526001600160a01b038088169260009291851691600080516020614a39833981519152910161242f565b606654600090610100900460ff1680156128ee57506128ee612f36565b801561063f575050336000908152606860209081526040808320938352929052205460ff1690565b6000818484111561293a5760405162461bcd60e51b81526004016106119190613bf1565b5060006129478486613e10565b95945050505050565b60008061295d8385613dc5565b9050838110156129ad5760405162461bcd60e51b815260206004820152601b60248201527a536166654d6174683a206164646974696f6e206f766572666c6f7760281b6044820152606401610611565b9392505050565b6000838152606f60205260409020546001600160a01b03838116911614612a275760405162461bcd60e51b815260206004820152602160248201527f4e6f7420636f7272656374206f776e6572206f662073657269616c6e756d62656044820152603960f91b6064820152608401610611565b6000838152606f6020908152604080832080546001600160a01b0319166001600160a01b038616908117909155835260709091528120805491612a6983613ea5565b90915550506001600160a01b0382166000908152607060205260408120805491612a9283613e53565b9190505550505050565b6001600160a01b038316612afe5760405162461bcd60e51b815260206004820152602360248201527f455243313135353a206275726e2066726f6d20746865207a65726f206164647260448201526265737360e81b6064820152608401610611565b33612b2e81856000612b0f87612f7a565b612b1887612f7a565b5050604080516020810190915260009052505050565b612b7582604051806060016040528060248152602001614a596024913960008681526074602090815260408083206001600160a01b038b1684529091529020549190612916565b60008481526074602090815260408083206001600160a01b0389168452909152902055606b5460ff1615612bc5576000612baf8585611874565b90508015612bc357612bc3818660006129b4565b505b6003600052606a602052600080516020614a7d8339815191525415801590612c39575060036000908152606a602052600080516020614a7d83398151915280548290612c2157634e487b7160e01b600052603260045260246000fd5b6000918252602090912001546001600160a01b031614155b15612ce85760036000908152606a602052600080516020614a7d8339815191528054909190612c7857634e487b7160e01b600052603260045260246000fd5b600091825260208220015460405163b68c437960e01b81526001600160a01b039091169163b68c437991612cb59188918890600390600401613b20565b600060405180830381600087803b158015612ccf57600080fd5b505af1158015612ce3573d6000803e3d6000fd5b505050505b60408051848152602081018490526000916001600160a01b038781169290851691600080516020614a39833981519152910160405180910390a450505050565b60608180602001905181019061063f919061381c565b600154610100900460ff16612d655760405162461bcd60e51b815260040161061190613c9e565b6124bf3361243e565b6000612d7b826020613dc5565b83511015612dc35760405162461bcd60e51b8152602060048201526015602482015274746f55696e743235365f6f75744f66426f756e647360581b6044820152606401610611565b50016020015190565b60008180602001905181019061063f919061398d565b606654600090610100900460ff168015612e21575033600090815260676020908152604080832083356001600160e01b031916845290915290205460ff165b905033612e2c611913565b6001600160a01b03161480612e3e5750805b612e5a5760405162461bcd60e51b815260040161061190613c69565b610ae3848484612fd3565b606654600090610100900460ff168015612ea4575033600090815260676020908152604080832083356001600160e01b031916845290915290205460ff165b905033612eaf611913565b6001600160a01b03161480612ec15750805b612edd5760405162461bcd60e51b815260040161061190613c69565b60008383606c54604051602001612f10939291909283526001600160a01b03919091166020830152604082015260600190565b6040516020818303038152906040528051906020012060001c9050610ae3818486612fd3565b606654600090610100900460ff168015612f75575033600090815260676020908152604080832083356001600160e01b031916845290915290205460ff165b905090565b60408051600180825281830190925260609160009190602080830190803683370190505090508281600081518110612fc257634e487b7160e01b600052603260045260246000fd5b602090810291909101015292915050565b606654600090610100900460ff168015613012575033600090815260676020908152604080832083356001600160e01b031916845290915290205460ff165b90503361301d611913565b6001600160a01b0316148061302f5750805b61304b5760405162461bcd60e51b815260040161061190613c69565b6000848152606e6020526040902054156130a45760405162461bcd60e51b815260206004820152601a60248201527914d95c9a585b081b9d5b58995c88185b1c9958591e481d5cd95960321b6044820152606401610611565b6000828152606d60209081526040808320805460018101825590845282842001879055868352606e8252808320859055606f825280832080546001600160a01b0319166001600160a01b03881690811790915583526070909152812080549161310c83613ea5565b9091555050606b54610100900460ff1661313057606b805461ff0019166101001790555b606c805490600061314083613ea5565b919050555050505050565b82805461315790613e6a565b90600052602060002090601f01602090048101928261317957600085556131bf565b82601f1061319257805160ff19168380011785556131bf565b828001600101855582156131bf579182015b828111156131bf5782518255916020019190600101906131a4565b506131cb929150613250565b5090565b610aed80613f2c83390190565b8280546131e890613e6a565b90600052602060002090601f01602090048101928261320a57600085556131bf565b82601f106132235782800160ff198235161785556131bf565b828001600101855582156131bf579182015b828111156131bf578235825591602001919060010190613235565b5b808211156131cb5760008155600101613251565b60006001600160401b0383111561327e5761327e613f00565b613291601f8401601f1916602001613d72565b90508281528383830111156132a557600080fd5b828260208301376000602084830101529392505050565b600082601f8301126132cc578081fd5b813560206132e16132dc83613da2565b613d72565b80838252828201915082860187848660051b8901011115613300578586fd5b855b8581101561331e57813584529284019290840190600101613302565b5090979650505050505050565b80356001600160e01b03198116811461334357600080fd5b919050565b600082601f830112613358578081fd5b6129ad83833560208501613265565b60008083601f840112613378578182fd5b5081356001600160401b0381111561338e578182fd5b6020830191508360208285010111156133a657600080fd5b9250929050565b6000602082840312156133be578081fd5b81356129ad81613f16565b6000602082840312156133da578081fd5b81516129ad81613f16565b600080604083850312156133f7578081fd5b823561340281613f16565b9150602083013561341281613f16565b809150509250929050565b600080600080600060a08688031215613434578081fd5b853561343f81613f16565b9450602086013561344f81613f16565b935060408601356001600160401b038082111561346a578283fd5b61347689838a016132bc565b9450606088013591508082111561348b578283fd5b61349789838a016132bc565b935060808801359150808211156134ac578283fd5b506134b988828901613348565b9150509295509295909350565b600080600080600060a086880312156134dd578283fd5b85356134e881613f16565b945060208601356134f881613f16565b9350604086013592506060860135915060808601356001600160401b03811115613520578182fd5b6134b988828901613348565b60008060008060808587031215613541578182fd5b843561354c81613f16565b93506020858101356001600160401b0380821115613568578485fd5b61357489838a016132bc565b95506040880135915080821115613589578485fd5b61359589838a016132bc565b945060608801359150808211156135aa578384fd5b818801915088601f8301126135bd578384fd5b81356135cb6132dc82613da2565b8082825285820191508585018c878560051b88010111156135ea578788fd5b875b848110156136235781358681111561360257898afd5b6136108f8a838b0101613348565b85525092870192908701906001016135ec565b505080965050505050505092959194509250565b60008060408385031215613649578182fd5b823561365481613f16565b915060208301358015158114613412578182fd5b60008060006060848603121561367c578081fd5b833561368781613f16565b92506136956020850161332b565b9150604084013590509250925092565b600080604083850312156136b7578182fd5b82356136c281613f16565b946020939093013593505050565b6000806000606084860312156136e4578081fd5b83356136ef81613f16565b95602085013595506040909401359392505050565b60008060008060808587031215613719578182fd5b843561372481613f16565b9350602085013592506040850135915060608501356001600160401b0381111561374c578182fd5b61375887828801613348565b91505092959194509250565b60008060408385031215613776578182fd5b82356001600160401b038082111561378c578384fd5b818501915085601f83011261379f578384fd5b813560206137af6132dc83613da2565b8083825282820191508286018a848660051b89010111156137ce578889fd5b8896505b848710156137f95780356137e581613f16565b8352600196909601959183019183016137d2565b509650508601359250508082111561380f578283fd5b50610d6a858286016132bc565b6000602080838503121561382e578182fd5b82516001600160401b03811115613843578283fd5b8301601f81018513613853578283fd5b80516138616132dc82613da2565b80828252848201915084840188868560051b8701011115613880578687fd5b8694505b838510156138a2578051835260019490940193918501918501613884565b50979650505050505050565b6000602082840312156138bf578081fd5b6129ad8261332b565b600080600080604085870312156138dd578182fd5b84356001600160401b03808211156138f3578384fd5b6138ff88838901613367565b90965094506020870135915080821115613917578384fd5b5061392487828801613367565b95989497509550505050565b600060208284031215613941578081fd5b81356001600160401b03811115613956578182fd5b8201601f81018413613966578182fd5b61226784823560208401613265565b600060208284031215613986578081fd5b5035919050565b60006020828403121561399e578081fd5b5051919050565b6000806000606084860312156139b9578081fd5b8335925060208401356139cb81613f16565b929592945050506040919091013590565b600080604083850312156139ee578182fd5b50508035926020909101359150565b6000815180845260208085019450808401835b83811015613a2c57815187529582019590820190600101613a10565b509495945050505050565b60008151613a49818560208601613e27565b9290920192915050565b60008251613a65818460208701613e27565b9190910192915050565b600080845482600182811c915080831680613a8b57607f831692505b6020808410821415613aab57634e487b7160e01b87526022600452602487fd5b818015613abf5760018114613ad057613afc565b60ff19861689528489019650613afc565b60008b815260209020885b86811015613af45781548b820152908501908301613adb565b505084890196505b5050505050506129478185613a37565b6001600160a01b0391909116815260200190565b6001600160a01b03858116825284166020820152604081018390526080810160048310613b5d57634e487b7160e01b600052602160045260246000fd5b82606083015295945050505050565b6020808252825182820181905260009190848201906040850190845b81811015613bad5783516001600160a01b031683529284019291840191600101613b88565b50909695505050505050565b6020815260006129ad60208301846139fd565b604081526000613bdf60408301856139fd565b828103602084015261294781856139fd565b6020815260008251806020840152613c10816040850160208701613e27565b601f01601f19169190910160400192915050565b60208082526025908201527f455243313135353a207472616e7366657220746f20746865207a65726f206164604082015264647265737360d81b606082015260800190565b6020808252601b908201527a4e6f74206f776e6572206f722061626c6520746f2062797061737360281b604082015260600190565b6020808252602b908201527f496e697469616c697a61626c653a20636f6e7472616374206973206e6f74206960408201526a6e697469616c697a696e6760a81b606082015260800190565b60208082526028908201527f455243313135353a2069647320616e6420616d6f756e7473206c656e677468206040820152670dad2e6dac2e8c6d60c31b606082015260800190565b60208082526021908201527f455243313135353a206d696e7420746f20746865207a65726f206164647265736040820152607360f81b606082015260800190565b604051601f8201601f191681016001600160401b0381118282101715613d9a57613d9a613f00565b604052919050565b60006001600160401b03821115613dbb57613dbb613f00565b5060051b60200190565b60008219821115613dd857613dd8613ed4565b500190565b600082613dec57613dec613eea565b500490565b6000816000190483118215151615613e0b57613e0b613ed4565b500290565b600082821015613e2257613e22613ed4565b500390565b60005b83811015613e42578181015183820152602001613e2a565b83811115610ae35750506000910152565b600081613e6257613e62613ed4565b506000190190565b600181811c90821680613e7e57607f821691505b60208210811415613e9f57634e487b7160e01b600052602260045260246000fd5b50919050565b6000600019821415613eb957613eb9613ed4565b5060010190565b600082613ecf57613ecf613eea565b500690565b634e487b7160e01b600052601160045260246000fd5b634e487b7160e01b600052601260045260246000fd5b634e487b7160e01b600052604160045260246000fd5b6001600160a01b03811681146114ab57600080fdfe608060405234801561001057600080fd5b50610acd806100206000396000f3fe60806040526004361061006f5760003560e01c8063715018a6146101635780638129fc1c1461017a5780638da5cb5b1461018f578063932fe1d5146101c1578063a1a74aae146101e1578063bdd4d18d14610201578063d71ab4b714610223578063f2fde38b1461024357600080fd5b3661015e576065546100ac5760405162461bcd60e51b81526020600482015260016024820152603160f81b60448201526064015b60405180910390fd5b60005b60655481101561015b576000606582815481106100dc57634e487b7160e01b600052603260045260246000fd5b60009182526020918290206040805160608101825292909101546001600160a01b03811680845263ffffffff600160a01b83048116958501869052600160c01b90920490911691830182905291935061014892610139903461097f565b610143919061095f565b610263565b5080610153816109b5565b9150506100af565b50005b600080fd5b34801561016f57600080fd5b50610178610294565b005b34801561018657600080fd5b506101786102cf565b34801561019b57600080fd5b506101a4610390565b6040516001600160a01b0390911681526020015b60405180910390f35b3480156101cd57600080fd5b506101786101dc3660046107d5565b61039f565b3480156101ed57600080fd5b506101786101fc36600461085b565b61043c565b34801561020d57600080fd5b50610216610579565b6040516101b89190610873565b34801561022f57600080fd5b5061017861023e366004610844565b610600565b34801561024f57600080fd5b5061017861025e3660046107b2565b61066d565b600080600080600085875af190508061028f576040516312171d8360e31b815260040160405180910390fd5b505050565b3361029d610390565b6001600160a01b0316146102c35760405162461bcd60e51b81526004016100a3906108df565b6102cd6000610706565b565b600054610100900460ff166102ea5760005460ff16156102ee565b303b155b6103515760405162461bcd60e51b815260206004820152602e60248201527f496e697469616c697a61626c653a20636f6e747261637420697320616c72656160448201526d191e481a5b9a5d1a585b1a5e995960921b60648201526084016100a3565b600054610100900460ff16158015610373576000805461ffff19166101011790555b61037b610758565b801561038d576000805461ff00191690555b50565b6033546001600160a01b031690565b336103a8610390565b6001600160a01b0316146103ce5760405162461bcd60e51b81526004016100a3906108df565b60005b8181101561028f5760658383838181106103fb57634e487b7160e01b600052603260045260246000fd5b835460018101855560009485526020909420606090910292909201929190910190506104278282610a01565b50508080610434906109b5565b9150506103d1565b33610445610390565b6001600160a01b03161461046b5760405162461bcd60e51b81526004016100a3906108df565b6065805461047b9060019061099e565b8154811061049957634e487b7160e01b600052603260045260246000fd5b90600052602060002001606582815481106104c457634e487b7160e01b600052603260045260246000fd5b600091825260209091208254910180546001600160a01b039092166001600160a01b031983168117825583546001600160c01b031990931617600160a01b9283900463ffffffff90811690930217808255925463ffffffff60c01b19909316600160c01b93849004909216909202179055606580548061055457634e487b7160e01b600052603160045260246000fd5b600082815260209020810160001990810180546001600160e01b031916905501905550565b60606065805480602002602001604051908101604052809291908181526020016000905b828210156105f757600084815260209081902060408051606081018252918501546001600160a01b038116835263ffffffff600160a01b8204811684860152600160c01b909104169082015282526001909201910161059d565b50505050905090565b33610609610390565b6001600160a01b03161461062f5760405162461bcd60e51b81526004016100a3906108df565b6065805460018101825560009190915281907f8ff97419363ffd7000167f130ef7168fbea05faf9251824ca5043f113cc6a7c70161028f8282610a01565b33610676610390565b6001600160a01b03161461069c5760405162461bcd60e51b81526004016100a3906108df565b6001600160a01b0381166107015760405162461bcd60e51b815260206004820152602660248201527f4f776e61626c653a206e6577206f776e657220697320746865207a65726f206160448201526564647265737360d01b60648201526084016100a3565b61038d815b603380546001600160a01b038381166001600160a01b0319831681179093556040519116919082907f8be0079c531659141344cd1fd0a4f28419497f9722a3daafe3b4186f6b6457e090600090a35050565b600054610100900460ff1661077f5760405162461bcd60e51b81526004016100a390610914565b6102cd600054610100900460ff166107a95760405162461bcd60e51b81526004016100a390610914565b6102cd33610706565b6000602082840312156107c3578081fd5b81356107ce81610a82565b9392505050565b600080602083850312156107e7578081fd5b82356001600160401b03808211156107fd578283fd5b818501915085601f830112610810578283fd5b81358181111561081e578384fd5b866020606083028501011115610832578384fd5b60209290920196919550909350505050565b600060608284031215610855578081fd5b50919050565b60006020828403121561086c578081fd5b5035919050565b602080825282518282018190526000919060409081850190868401855b828110156108d257815180516001600160a01b031685528681015163ffffffff9081168887015290860151168585015260609093019290850190600101610890565b5091979650505050505050565b6020808252818101527f4f776e61626c653a2063616c6c6572206973206e6f7420746865206f776e6572604082015260600190565b6020808252602b908201527f496e697469616c697a61626c653a20636f6e7472616374206973206e6f74206960408201526a6e697469616c697a696e6760a81b606082015260800190565b60008261097a57634e487b7160e01b81526012600452602481fd5b500490565b6000816000190483118215151615610999576109996109d0565b500290565b6000828210156109b0576109b06109d0565b500390565b60006000198214156109c9576109c96109d0565b5060010190565b634e487b7160e01b600052601160045260246000fd5b6000813563ffffffff811681146109fb578182fd5b92915050565b8135610a0c81610a82565b81546001600160a01b031981166001600160a01b0392909216918217835563ffffffff60a01b610a3e602086016109e6565b60a01b16808360018060c01b031984161717845563ffffffff60c01b610a66604087016109e6565b60c01b168363ffffffff60e01b84161782171784555050505050565b6001600160a01b038116811461038d57600080fdfea2646970667358221220d57ad3d407a5dedbfd2d8a654e39fda62913e9c4f8262e90cbae7f427711ba2864736f6c634300080400334a39dc06d4c0dbc64b70af90fd698a233a518aa5d07e595d983b8c0526c8f7fbc3d58168c5ae7397731d063d5bbf3d657854427343f4c083240f7aacaa2d0f62455243313135353a206275726e20616d6f756e7420657863656564732062616c616e6365165f0fc496c6f74e1376579ffc36bcfc90ef4779c44b9232cf0d606db3cc69d168747470733a2f2f6170692e656d626c656d7661756c742e696f2f733a65766d657461646174612f6d6574612f455243313135353a20696e73756666696369656e742062616c616e636520666f72207472616e73666572a26469706673582212204868d92aee8c93a0557dde9eaca5bc5516f73b30a33fc6c20c09e74b85b31b4f64736f6c63430008040033",
  "linkReferences": {},
  "deployedLinkReferences": {}
}